:020000021000EC
:1090000000600020B5920100DD920100DF920100B6
:10901000E1920100E3920100E592010000000000EE
:10902000000000000000000000000000E7920100C6
:10903000E992010000000000EB920100ED920100B6
:10904000D9B70100EF92010059BC0100EF92010075
:10905000EF92010000000000DDBA0100EF92010074
:10906000EF920100EF920100EF920100EF920100F8
:10907000EF920100EF920100EF920100EF920100E8
:10908000EF920100FDA80100EF920100EF920100B4
:10909000EF920100EF92010049F00100EF92010010
:1090A000EF920100EF9201000000000000000000BC
:1090B000EF920100EF9201000000000000000000AC
:1090C00000000000000000000000000000000000A0
:1090D0000000000000000000000000000000000090
:1090E0000000000000000000000000000000000080
:1090F0000000000000000000000000000000000070
:10910000000000000000000000000000000000005F
:10911000000000000000000000000000000000004F
:10912000000000000000000000000000000000003F
:10913000000000000000000000000000000000002F
:10914000000000000000000000000000000000001F
:10915000000000000000000000000000000000000F
:1091600000000000000000000000000000000000FF
:1091700000000000000000000000000000000000EF
:1091800000000000000000000000000000000000DF
:1091900000000000000000000000000000000000CF
:1091A00000000000000000000000000000000000BF
:1091B00000000000000000000000000000000000AF
:1091C000000000000000000000000000000000009F
:1091D000000000000000000000000000000000008F
:1091E000000000000000000000000000000000007F
:1091F000000000000000000000000000000000006F
:1092000010B5054C237833B9044B13B10448AFF3C0
:1092100000800123237010BD3825002000000000CD
:109220008013020008B5034B1BB103490348AFF399
:10923000008008BD000000003C25002080130200D3
:10924000154B002B08BF134B9D46A3F5803A002118
:109250008B460F461348144A121A06F0C4F80F4BF7
:10926000002B00D098470E4B002B00D098470020D1
:10927000002104000D000D48002802D00C48AFF377
:10928000008006F061F82000290004F091F806F053
:1092900047F800BF00000800006000200000000048
:1092A0000000000038250020FC34002000000000F1
:1092B000000000000649074A074B9B1A03DD043BE8
:1092C000C858D050FBDC01F0EBFFFFF7B9FF0000FE
:1092D000A8140200C822002038250020FEE7FEE77F
:1092E000FEE7FEE7FEE7FEE7FEE7FEE7FEE7FEE756
:1092F0007047000007B5044B0093044A402300F078
:1093000032F803B05DF804FB1193010055250020ED
:109310002DE9F84389461446B2B10F4B0F4E032591
:10932000002743F00108224609EB0701002004F062
:10933000C7FA0744241A48B933782BB14FF47A405E
:10934000C047013D02D13570BDE8F8830123337079
:10935000002CE8D1F8E700BF1006020054250020D9
:10936000704704F0E1BAF0B595B01C4616460846C1
:109370000D4601F062FE1A9B0D93CDE908640024AE
:109380002346082205A928460A948DF82C400C94FF
:1093900001F071FE079B0293BDF81830ADF80C3058
:1093A000BDF81A30ADF80E309DF814308DF811402C
:1093B00003F00302012A1DD1BDF81440059EC3F33A
:1093C000C203C4F383148DF81030A20008230EA941
:1093D000284601F050FEC6F3952608AB00932246BE
:1093E00002AB0EA9304600F065FB284601F029FECD
:1093F00015B0F0BD022AF8D1BDF81640C3F3C20380
:10940000A4098DF810300827082C264628BF082606
:109410003B4632460EA9284601F02DFEA41B08ABA0
:1094200002AA31460EA8374400F0A8FB002CEBD16D
:10943000DBE7000008B5FFF794FF0421034800F0C4
:109440009FFA034B01225A7108BD00BF901402001D
:10945000C8220020037813F0040216D003F003039F
:10946000012B03D0022B09D0012070470A68008825
:109470000232C0F3831002440A60F5E70B684288A9
:10948000023303EB92130B60EEE7104670470000C7
:109490002DE9F04F89B00546861C08A8484C01927A
:1094A00000230F4600F8113D01F0B2F823683B603D
:1094B000D4E901231344226801339B1A04F21C47A8
:1094C00004F5836A04F21448B3421AD3019A0023C4
:1094D000002A6DD0012262F3010343F0040365F317
:1094E00089132168A2689DF80F000A4003320E44D8
:1094F00044F82230266001F0AFF8012009B0BDE841
:10950000F08F0121384601F0D2FA504601F0E5FA19
:10951000404601F0E2FA0DF120096068D4F808B085
:1095200049F8100D00EA0B00033004EB80004946B7
:10953000FFF790FF049BB0B90BEA030204EB820231
:10954000D16805919A1C013303EA0B0B04EB8B0CD9
:1095500001F00303012B0492DCF80CB020D0022BA5
:1095600004D083460BE00BEA0300DDE7BDF81630BC
:109570009B0903334FEA1B4B02EB930304934046D2
:1095800001F0AEFA08B1049B63605946384601F019
:109590008EFAD4E901231344226801339B1A93E71E
:1095A000BDF81430C3F383134FEA1B4B1344E5E7B4
:1095B000022262F3010343F0040365F39F5390E733
:1095C000682600200B4B0C48FF2210B59A60002241
:1095D000C3F81824C3E90022C3F8142483F8202414
:1095E00001F0E4FC044610B9044801F0CFFD204628
:1095F00010BD00BF68260020EC13020034060200F4
:1096000030B50A4C71B10A4A0A49121BD20800232C
:109610009A4201D1002030BD31F82350854202D05A
:109620000133F5E7034654F83300F4E70014020071
:109630009014020034250020094B013903EBC000CF
:10964000032909D8DFE801F00A0204060420704764
:1096500000797047407970470020704702207047BA
:1096600000140200034BD3E90030C31A584258419A
:10967000704700BF682600202DE9F04387B0FFF750
:10968000F1FF0646002840F0FC807F4DC5F8180425
:10969000BFF34F8F6868AC6806AF47F8100D2040E5
:1096A000033005EB80003946FFF7D4FE029B18B16A
:1096B000D5F81824002A5FD004EA0302991C01336C
:1096C00005EB8202234005EB8303D268DB68049339
:1096D00002F00303022B0392029162D1BDF80E3017
:1096E0006A484FEA9318B8F1500FC14628BF4FF0AF
:1096F000500969F38F1309F10801ADF80E3001F03C
:109700006DFC0746002800F0A78001F096FC03A935
:1097100000230822384601F0A3FC029924EA01063E
:109720000136B600B14535D95FFA89F97EB3F6B294
:10973000A9EB0609214003315FFA89F4B146544E82
:1097400005EB810108234A46384601F089FC36B111
:1097500009F1080322463146384601F081FC029B9C
:1097600008F1030803EB98030293D5F81834002B93
:109770004BD1D5F810445BE02A689A4204D86A605D
:10978000304607B0BDE8F08304EA030088E74049AB
:109790003446D7E72140033108234A4605EB8101CF
:1097A000DAE7012B58D1BDF80C303848C3F38311E8
:1097B000062928BF062161F3891302318900ADF81B
:1097C0000C3001F00BFC0746002845D001F035FCB9
:1097D0000023082203A9384601F042FC0026BDF808
:1097E0000C20C2F38312B31C96424FEA8303BCD20F
:1097F00002994A1C21400331029205EB81010422A7
:10980000384601F02DFC0136E9E7384601F019FC35
:10981000FFF728FF80F00100C6B2B1E7E3685B798B
:1098200023B1236839461B6820469847E3681C68C3
:10983000002CF3D1384601F004FC06A800F8114DC5
:1098400000F0E6FED5F818340BB9029B6B609DF86A
:10985000070000F001FFDBE7D5F8104454B90D4BC9
:109860000D480E49C01AC008000440F0020000F084
:109870006FF8CDE7236820469B689847E3681C682B
:10988000ECE700267CE700BF68260020EC1302000E
:109890007426002000140200281402004006020072
:1098A0002DE9F74F284C80460F46924601A9012228
:1098B00018469B46D4F80890FFF7EAFD88B3019D4F
:1098C0000026A91C5E4506EB010234D100211F4889
:1098D00001F0C2F880F310006A1C02EA090204EBEE
:1098E0008202000405EA0903033340EA1840D0600D
:1098F00014F8232068F3C50204F8232034F8232049
:1099000066F3891224F8232054F82320012167F3F9
:109910009F2244F8232061F301026FF3820204F8CE
:10992000232094F820341BB1FFF7A6FE0028FBD1BA
:1099300003B0BDE8F08F09EA020204EB82025AF894
:109940002630D3600136BDE768260020842A002037
:1099500000231A46FFF7A4BF13B502AC012344F855
:10996000042D2246FFF79CFF02B010BD07B5CDE9DC
:10997000002302236A46FFF793FF03B05DF804FB60
:1099800030B5134AD2F810440023214651B9C468B7
:109990002371D2F810445CB9C2F81004C268116097
:1099A000184630BDC9680D799D420AD00968EDE7B7
:1099B000E468C16824680C60D2F81024D268106092
:1099C000EEE701330A2BE0D14FF0FF33E8E700BFA9
:1099D0006826002038B5094A0123D2F8104482F8DD
:1099E00020341D4604B938BDE3685D712368204604
:1099F0005B689847E3681C68F4E700BF68260020AE
:109A000010B5037A052B0C460FD0437A23B1084AD0
:109A10000849204601F0C7F80749204601F0C3F87D
:109A20002046BDE8104001F0B3B8002AF8D0F3E7B3
:109A30008B06020090060200000E020073B5C38878
:109A400004460D4633B1144A00921449144A28467C
:109A500001F0A9F8217A05291CD0637A4BB1A088BE
:109A6000FFF7EAFD0F4B104953F82020284601F07C
:109A70009AF8227A0D4BA08853F822600021FFF754
:109A8000BFFD0B4903463246284602B0BDE8704090
:109A900001F089B802B070BD8B0602009B0602007F
:109AA000930602005806020090060200C00602005B
:109AB000B30602002DE9F04385B01F460C9D00233C
:109AC00006460C46904695F80C902B73294638466E
:109AD000FFF7B4FFB8F1060F09D8DFE808F0041269
:109AE000181F283340003146284601F05CF8002258
:109AF00029463846FFF784FF85F80C9005B0BDE88D
:109B0000F08322683146284601F04DF8EFE7D4E9AA
:109B100000233146284601F046F8E8E7A3680093A1
:109B20003146D4E90023284601F03DF8DFE7E36839
:109B30000193A36800933146D4E90023284601F03D
:109B400032F8D4E723690293E3680193A368009392
:109B50003146D4E90023284601F025F8C7E76369B8
:109B6000039323690293E3680193A368009331464A
:109B7000D4E90023284601F016F8B8E708292DE9B2
:109B8000F84F80460E4617461C4635D8002593F8F8
:109B90000C901D7319461046FFF750FFDFF88CA09C
:109BA000DFF88CB0AE4229D918F805205946204676
:109BB00000F0F9FF0135082DF4D11A49DFF874B02F
:109BC000204600F0F0FF4FF0000A564524D918F85F
:109BD0000A507E2D17D92E225946204600F0E3FF69
:109BE0000AF1010ABAF1080FEFD1012221463846E5
:109BF000FFF706FF84F80C90BDE8F88F5146204629
:109C000000F0D1FFD6E705F0C3FB2844427812F0FC
:109C1000970FE0D02A46DFE70349204600F0C3FF54
:109C2000DEE700BF8606020084060200820602000C
:109C30007C06020088060200C30710B507D4F02393
:109C40004008054A145C23401943115410BD090112
:109C5000C9B20F23F4E700BF582B002030B5094BE1
:109C60001C78094B196800239C4202DC0022104634
:109C700030BD11F83350854201EBC302F7D00133F8
:109C8000F2E700BF242B0020682B002070B50446AB
:109C90000D46FFF7E3FF30B1436823B12946204664
:109CA000BDE87040184770BD034B04481968002296
:109CB000490800F0AABA00BF282B0020302B002052
:109CC00010B5C0B2FFF7CAFF0446007801F0FCFEF1
:109CD00063785A1E53425341834208D1044BD3E95F
:109CE0000023134303D1BDE81040FFF7DDBF10BDD3
:109CF000502B00202DE9F348394A43080446D35C31
:109D0000C2074CBF1B0903F00F030D46042B39D8C3
:109D1000DFE803F00328303D410099B30121FFF74C
:109D20008BFF02A8002600F8016D00F071FC2D4D9C
:109D30000121A4F12007C4F1200001FA07FC21FA57
:109D400000F04CEA000C01FA04FBD5E900014BEAF3
:109D500000024CEA0103C5E900239DF8070000F06A
:109D60007BFC0FE0002914BF022100212046FFF7F1
:109D700063FF07E049B10321FFF75EFF01212046A1
:109D8000FFF784FF02B0BDE8F0880121EEE700296B
:109D9000F8D10421EAE709B10321E7E7FFF74CFF17
:109DA00029462046FFF772FF02A80E4E00F8015D1B
:109DB00000F02EFCA4F120070121C4F1200001FADB
:109DC00007FC21FA00F04CEA000C01FA04FBD6E98A
:109DD000000120EA0B0221EA0C03C6E90023BCE7DC
:109DE000582B0020502B00202DE9F041124E134F2C
:109DF00000243378A34208DC114BD3E9002313433A
:109E000018D0BDE8F041FFF74FBF3D6805EBC4082F
:109E100015F8340001F058FE98F801104B1E594215
:109E200059410A1A514215F834005141FFF762FFB7
:109E30000134DEE7BDE8F081242B0020682B0020F0
:109E4000502B0020092AF7B505460C4616463FD987
:109E500001F050FDD8B11F4B1F481D601F4B204F14
:109E60001C70204B002110221E6005F0BCFA1E4B16
:109E700000200021C3E90001013CE4B20326FF2CCD
:109E80000BD11A4A1A48002100F0B4F903E001F09E
:109E9000FBFC0028DFD003B0F0BD9DF806308DF844
:109EA000046020B203F0FC0305EBC0026FF38203F1
:109EB0008DF80630937815F830008DF805303A4665
:109EC00001A901F021FD013CE4B20028D7D0E2E76E
:109ED0000720E0E7682B0020582B0020242B0020CF
:109EE000C19C0100282B0020502B0020E99D01007F
:109EF0002007020070B5084D084E00242B789C42C4
:109F000001D3002070BD3368012113F8340001F043
:109F100073FD0134F2E700BF242B0020682B0020E2
:109F200073B5104D104E00242B789C4213D302A819
:109F3000002300F8013D00F06BFB0C4B00210020DA
:109F4000C3E900019DF8070000F086FB084800F017
:109F500074F902B070BD336813F8340001F092FD5B
:109F60000134E1E7242B0020682B0020502B002037
:109F7000302B002010B5084B1B6803EBC00413F80E
:109F8000300001F0A1FD63785A1E53425341191A63
:109F90004842484110BD00BF682B00201FB500217A
:109FA000039001AA44F20100CDE9011100F004F888
:109FB00005B05DF804FB000010B572B6FFF70AFDAE
:109FC000FFF75AFB0028FBD1104B114C1149E41A42
:109FD000E408240444F00100FFF7BAFC0E4B1B68B0
:109FE000DB0700D500BE0D4944F00200FFF7B0FCCE
:109FF000BFF34F8F0A490B4BCA6802F4E062134368
:10A00000CB60BFF34F8F00BFFDE700BF001402001D
:10A01000281402002F070200F0ED00E03B070200C9
:10A0200000ED00E00400FA0549B152B1531E1A4098
:10A0300007D1826001608380C260104670470E20A5
:10A0400070470920704710B58468C2688388121B66
:10A05000934208D3C26813400268D154C3680133E5
:10A06000C360002010BD0420FCE78268C3689A42E8
:10A070000AD08268838813400268D35C0B708368BF
:10A08000013383600020704705207047D0E9022328
:10A09000D1E90201994208BF90422CBF0120002063
:10A0A000704700002DE900480C4800F013FC0C4BF1
:10A0B000D3E9002312EB000B43F1000C094BD3E969
:10A0C00000239C4508BF93455846614603D21BF1C7
:10A0D00080704CF10001BDE8008800BFD022002054
:10A0E000702B0020E82B002037B505460C460A48A7
:10A0F00001A900F020FC60B10570446001A9064888
:10A1000000F043FC18B1054800F0E8FB002003B064
:10A1100030BD0420FBE700BFD42B0020D02200205C
:10A120002DE93048184B1B7804461BB900252846FA
:10A13000BDE830880028F9D0037F03F0FF05002B2D
:10A14000F4D0FFF7AFFFD4E90223994208BF904251
:10A1500015D3236903B92377D4E9053098472169DA
:10A160000029E3D0237F03F0FF05002BDED0D4E9E4
:10A17000022312EB010B43F1000CC4E902BC21469F
:10A18000024801F026F8D2E7782B00204C070200A5
:10A1900013B5114B11491868019008235822104833
:10A1A00000F0B6FB044698B90E4A0F4801A900F02A
:10A1B00077FA044660B901210B4800F06BFB0123DC
:10A1C0000A4A0948194600F0C9FA094B01221A70D7
:10A1D000204602B010BD00BF480702007C2B0020C3
:10A1E000D42B002055A20100D0220020FFFF7F00C9
:10A1F000782B00203AB103685A614A1E51425141FE
:10A200001961002070470720704738B5037F044666
:10A210000D4683B98261FFF745FF421941F1000302
:10A22000C4E90223236903B1256121460020BDE86A
:10A230003840FFF759BF002038BD0023014603779F
:10A240000120FFF751BF0000014800F043BB00BFF1
:10A25000D02200202DE9F74F064600F024FB40B144
:10A260005949D1E9002312F1807443F10005C1E995
:10A2700000450021304600F026FB38B1534C2368DE
:10A2800023B12068FFF74CFF0023236001213046F3
:10A2900000F019FB20B1FFF705FF4D4BC3E90001AA
:10A2A00001A94C48494D4C4C4C4F00F07EFB002816
:10A2B00044D1DFF824A1454CDFF828B1504600F026
:10A2C0009EFF2368002875D07BB12368D0E9020186
:10A2D000D3E90223994208BF90422CD223681B7F06
:10A2E0001BB12168504600F074FF504600F081FF1A
:10A2F000D0E902890746FFF7D5FEB8EB000869EB05
:10A30000010940464B46012873F1000345DB344DFB
:10A31000A84540D9FFF798FF42194FF49603002152
:10A32000584600F03FFA00283FD1236813B9304661
:10A3300000F00CFA276003B0BDE8F08F0378012B22
:10A340001ED00BD3022B12D14FF00008204600F094
:10A3500050FF002834D080F81C80F7E743681A7F4C
:10A360002AB901221A774168204600F032FF01A97C
:10A37000184800F045FB01A9164800F016FB96E7C7
:10A3800041682B68994202D100232B60EFE72046F9
:10A3900000F038FFEBE7BA68BFE70021584600F04D
:10A3A00087FA3846FFF7BCFE01E00D28F9D00023FC
:10A3B000236083E7002BBED1304600F0CBF9BAE72B
:10A3C00001233B70D3E700BF702B0020F02B00204F
:10A3D000E82B0020D42B00204C070200782B002013
:10A3E000FFFFB400D02200200648074A037807493F
:10A3F000D35C012213B1043002F09AB80C3001F0A2
:10A4000055BE00BFD82200207C3400201C2C002028
:10A410000648074A03780749D35C012213B1043088
:10A4200002F02EB80C3001F0EBBD00BFD8220020A6
:10A430007C3400201D2C002037B50578012D04D078
:10A4400037D3022D2AD003B030BD037A13B9FFF7FA
:10A45000CBFFF8E743681E4C19782046FFF7F3FD61
:10A4600080B11C4B01908DF800501B6868469847DE
:10A47000A168E368A2885B1A9A42E8D2164B0122CF
:10A480001A70E0E7A268E3689A42F1D002AB114A81
:10A4900003F8080D126818469047E9E7C36801936E
:10A4A0008DF80050FFF7A0FF0A4B1B6868469847DD
:10A4B000C9E70A490A48FFF7D8FD10B9FFF7A8FF16
:10A4C000C1E702A8032300F8083D024B1B68EEE732
:10A4D000F82B0020F42B0020082C00201D2C00203D
:10A4E0000C2C0020F0B51F46234B89B006461A609D
:10A4F0000C4600293DD08A8820480968FFF794FD62
:10A50000002834D1A289A1681D48FFF78DFD0028DD
:10A510002DD11C4D0FCD6C460FC495E80F0084E87B
:10A520000F0073690693337C174A18488DF81C7026
:10A53000003318BF01238DF81430737C002B14BF37
:10A540000E2300238DF81530F3680293B36803934C
:10A550003368019369467368009301F0D5F830B908
:10A560000B4B18703368013301D0FFF73DFF09B082
:10A57000F0BD0720FBE700BFF42B0020F82B0020E4
:10A580000C2C00206407020039A40100D82200200E
:10A59000082C002070B5084C014608482678FFF7C3
:10A5A00064FD054636B100232370FFF71DFF08B197
:10A5B000FFF7F4FC284670BD082C0020F82B002083
:10A5C00010B501460E48FFF73EFD0446A8B90D48F8
:10A5D0000D4A0378D35C63B1043001F09DFF60B98C
:10A5E0000A490748FFF741FD38B9BDE81040FFF7B9
:10A5F0000FBF0C3001F04EFDF1E7204610BD00BF4B
:10A600000C2C0020D82200207C3400201D2C00209F
:10A6100070B5EFF3108672B60C4A946801239CB9AA
:10A6200093600B4B0B4DD3F8801029401160C3F899
:10A630008050D3F8841051604FF0FF32C3F884206B
:10A64000047006B962B670BD0370FAE7703400207A
:10A6500000E100E0FC06FFBD10B5084B9A685AB156
:10A6600050B9EFF3108172B6054A1C6814605C683B
:10A670005460986001B962B610BD00BF703400200C
:10A6800000E100E0435882B03BB1002343504358FF
:10A690000193019B012002B070471846FBE70000C0
:10A6A00070B5224C437944F82320214C214A121BD7
:10A6B000214C04EBC303D2081B79120433B142F0DE
:10A6C00002001E49FFF744F9082070BD03680D8899
:10A6D000C3F8085590F904308978002B4FEA4111EE
:10A6E000AFBF03F1604303F00F03154DC9B2A9BF1B
:10A6F00003F56143E954C9B283F8001390F90430BB
:10A70000104D01215E0903F01F0301FA03F345F820
:10A710002630437904EBC30544F83300297142F035
:10A7200003000949FFF714F90020CEE7282C002088
:10A730000014020038140200202C002096070200AA
:10A7400014ED00E000E100E0B80702000368012218
:10A750001A607047036801225A607047F7B50568B0
:10A760004FF480348C40C5F808430568C5F8484369
:10A770008D0005F5A0750668ADB2002777517559B3
:10A780000195019D056801F5A87122F07F4245F809
:10A7900021200268C2F8444313B10368C3F804439C
:10A7A00003B0F0BD2DE9F34799464FF480380368B4
:10A7B00008FA01F8C3F848830368C3F8088322F055
:10A7C0007F4502688E000F46D2F80415324406F524
:10A7D000A076D2F84035C2F84015B6B202684FF004
:10A7E000000A42F806A05B1A9259009223F07F43B8
:10A7F000012B0446009A0BD1254B4FF4806043F0A7
:10A8000001039847236843F806A09B590193019BD5
:10A810002368D3F80465C3F84483AB1B23F07F435C
:10A82000012B07F5A877236819D1013543F8275084
:10A83000174B4FF4806043F0010398472368D3F827
:10A8400004359E4209D12368C3F84483236800205D
:10A85000C3F8048302B0BDE8F0870D20FAE743F89F
:10A8600027502068D0F804156A1A013AC9F1FF137D
:10A8700022F07F4203F57F439342EED3002AE2D1D8
:10A88000013540F827502368D3F804359942D9E7B9
:10A890009007020002680223C2F8443311B1026833
:10A8A000C2F8043370474FF482710068FFF7EABEC4
:10A8B0004FF4803303FA01F10368C3F848130368C7
:10A8C000C3F808137047890001F5A07189B20068C8
:10A8D000FFF7D8BE0368D3F80405704790F9043039
:10A8E00001215A0903F01F0301FA03F34032024920
:10A8F00041F82230704700BF00E100E0024B034AFC
:10A900001B681068184700BF282C0020202C00204E
:10A9100010B561B1B2FBF3F403FB1424A4B244B943
:10A92000C0E9001484608281C381204610BD0E20DE
:10A93000FCE70920FAE737B550E8013F9DB2C4892A
:10A9400025448489A54228BF2D1B0489A54202BF46
:10A95000BFF32F8F002207E0C5EA030540E801544A
:10A96000002CE9D14FF001028DF803200193019BE7
:10A970009DF803200B6002F0FF0322B10B880068F2
:10A98000184403B030BD1846FBE70A884B889A424A
:10A9900009D150E8012FC2EA024240E80123002B0E
:10A9A000F7D1012070470020704737B550E8023FCB
:10A9B0001FFAA3F5C488A54202BFBFF32F8F002260
:10A9C0000DE0C48925448489A54228BF2D1BC3EA14
:10A9D000054540E80254002CE8D14FF001028DF803
:10A9E00003200193019B9DF803200B6002F0FF03FD
:10A9F00022B14B880068184403B030BD1846FBE70D
:10AA00000A884B889A4209D150E8022FC2EA2242B2
:10AA100040E80223002BF7D1012070470020704747
:10AA200001F01F024B090121914000EB830000F06F
:10AA30001DB801F01F0301229A404B0900EB83006F
:10AA4000D14300F029B84B0901F01F0150F8230051
:10AA5000C84000F00100704750E8002F0B4640E866
:10AA6000003C9CF0000FF7D11046704750E8003FC3
:10AA700043EA010240E8002C9CF0000FF6D110469A
:10AA8000704750E8002F02EA010340E8003C9CF0C8
:10AA9000000FF6D11046704750E8003F03EA01026C
:10AAA00040E8002C9CF0000FF6D11046704750E8AB
:10AAB000003F03EB010240E8002C9CF0000FF6D1B0
:10AAC0001046704750E8003FA3EB010240E8002C1D
:10AAD0009CF0000FF6D1104670470121FFF7C6BF6A
:10AAE0000021FFF7CEBF10B590B1D0E90123016876
:10AAF0009B1ADBB20A60013BDBB2FF2B026802D17A
:10AB00000020107110BD11684C1C14600B70F2E72E
:10AB10000E20F7E737B5054602A8002400F8014DDE
:10AB2000FFF776FD2A68696813688B4210D9591EB1
:10AB3000116013F8014C2A8AEB6802FB04342A687E
:10AB4000AB6811685B1A1179DBB2994238BF137197
:10AB50009DF80700FFF780FD204603B030BD37B5F4
:10AB6000054602A8002300F8013D0C46FFF750FD02
:10AB70002A681368591C1160E968641A298AB4FBB1
:10AB8000F1F41C709DF80700FFF766FD03B030BDBF
:10AB900010B5826804462AB1436901680069984784
:10ABA0000023A36010BD0EB403B5039929B102AA16
:10ABB00004AB42F8043D00F073F802B05DF804EB1A
:10ABC00003B070470A2938B504460D4602D10D215D
:10ABD000FFF7F8FFA3682268591CA160D554D4E997
:10ABE00001329A4204D32046BDE83840FFF7D0BF77
:10ABF00038BD00002DE9F84F9946DDE90A431746B4
:10AC0000824688460A460126BA420FD24E4538BFD0
:10AC10004E4613F0010B01D164B900240125B9F1AE
:10AC2000010F1AD909F1FF397D43F8E7B2FBF7F2BA
:10AC30000136E9E79B070ED5B9F1000F0CBF3025AF
:10AC40002025A642EAD2013C29465046FFF7BAFF2A
:10AC5000002CF6D1E1E72025F3E7B8FBF5F39F429E
:10AC6000E2D9DFF83890B8FBF5F3504619F8031035
:10AC700005FB1388FFF7A6FFB5FBF7F5002DF2D112
:10AC8000BBF1000F02D00CB1A64201D3BDE8F88F92
:10AC900020215046013CFFF795FFF4E7CA07020068
:10ACA0002DE9F74F054690460E46002900F03A81FF
:10ACB00016F8011B002958D0252940F0D180002723
:10ACC00002E047F001071646324612F8013B2D2BF1
:10ACD000F7D0302B04D02B2B05D147F00407F2E737
:10ACE00047F00207EFE700242A2B06F101021BD1EF
:10ACF000D8F80030191DC8F800101B6816461C440F
:10AD000033782E2B1CD101364FF0000A314611F852
:10AD1000012BA2F13000092814D80A2303FB0A23CF
:10AD2000A3F1300A0E46F1E712F8013CA3F130011D
:10AD30000929E5D80A2101FB0434303C1646D3E743
:10AD40004FF0000A324612F8011B01F0FB006828A0
:10AD50001646F8D0692916D054D8582970D00ED884
:10AD600025297DD03378002BA2D12B7B002B00F03E
:10AD7000D980284603B0BDE8F04FFFF709BF63292B
:10AD800068D06429EED1D8F80020111DC8F8001051
:10AD9000D2F8009089EAE972A2EBE9724FF0010B58
:10ADA000092A61DCD34538BFD3462CB1B9F1000F75
:10ADB00001DB790700D5013CBA0702D5BAF1000FD3
:10ADC00004D0FB0702D4002C54D10024B9F1000FA9
:10ADD00058DAC9F100092D212846FFF7F3FE07F0E4
:10ADE0000302022A05D1BAF1000F02D1002C4DD185
:10ADF0000024CDE9004753460A2249462846FFF77A
:10AE0000F9FEAFE7732954D016D87029AAD1D8F823
:10AE100000301A1DC8F80020302128461C68FFF7B2
:10AE2000D1FE78212846FFF7CDFE00220823CDE988
:10AE3000003221461022E1E775292FD0782991D1DF
:10AE4000D8F800100A1DC8F80020CDE90047534685
:10AE500010222CE0D8F800301A1DC8F8002019780C
:10AE60002846FFF7AFFE7DE70A230BF1010B92FBAB
:10AE7000F3F295E7A345A9D220212846013CFFF72C
:10AE8000A1FEA0E77807AAD52B21A5E7A345B0D25C
:10AE900030212846013CFFF795FEA7E7D8F80010BF
:10AEA000CDE900470A1DC8F8002053460A22096868
:10AEB000A4E7D8F800301A1DC8F80020F907D3F825
:10AEC000009012D54F46A7EB090B17F8011B41B9AB
:10AED000A345BFF447AF20212846013CFFF772FE8F
:10AEE000F6E72846FFF76EFEEDE7B9F1000F17D041
:10AEF000484604F0A1FA0746BC4200D954B909F10A
:10AF0000FF3919F8011F00293FF42CAF2846FFF73D
:10AF100059FEF6E720212846013CFFF753FEEBE7F8
:10AF20004F46E9E703B0BDE8F08F2DE9F047B0F8F0
:10AF300006904479D2F800A09DF8208009FB04F423
:10AF4000043C06460AEB0300A0420F4688BFA4EB70
:10AF5000030A191DC2F800A0B1FBF9F509FB151190
:10AF60004DB9A9EB0104544528BF5446BAF1000F6E
:10AF700004D1BDE8F0873668013DF1E704317B1963
:10AF800070182246B8F1000F0ED001461846AAEB01
:10AF9000040A04F01DFAD145254436684C464FF0AA
:10AFA000000128BF5446E1E71946F0E7FFF79BBDD3
:10AFB000F8B546790146721E0546002393422D6876
:10AFC00003D30024A64202D8F8BD0133F6E70F6888
:10AFD0002846FFF7C4FD01343946F3E72DE9F8436D
:10AFE000CD1C068A0746FFF795FD043E354404460E
:10AFF000B5FBF6F5F0B14FF48073EDB28380C680F7
:10B00000013D076081464FF00008A84512D238463E
:10B01000FFF780FD064648B163790133637108F19B
:10B020000108C9F8000007608146EEE72046FFF7F7
:10B03000BFFF34462046BDE8F88301210430FFF706
:10B0400036BD10B5012104460430FFF73BFD10F07A
:10B05000FF0F04D12046BDE81040FFF7A9BF10BD87
:10B060001FB504AC44F8042D002200922246FFF7DD
:10B070005CFF04B010BD1FB504AC44F8042D0122E0
:10B0800000922246FFF751FF04B010BD33DF704736
:10B0900041DF7047064B10B500241C70054B1C6047
:10B0A000BFF35F8F0449054800F07EF8204610BDCD
:10B0B000352C0020382C0020DC0702002C2C00202E
:10B0C00008B503F0A7FF18B1BDE80840FFF7E0BFDF
:10B0D00020BF40BF20BF08BD70B5264C05460121EA
:10B0E0002046FFF7B9FCBFF35F8F264638B9042D21
:10B0F0000AD0214B1A781AB1BFF35F8F206070BD60
:10B100001E4A157001221A701D4C1C4D6368BBB994
:10B11000FEF760FCFEF7B0FA0028FBD1174B1B7856
:10B12000023B012B14D8BFF34F8F1649164BCA6848
:10B1300002F4E0621343CB60BFF34F8F00BFFDE723
:10B140001B682878984788B1204600F036F8DDE77C
:10B1500003F060FF08B1FFF799FF4FF08043012231
:10B16000C3F80025BFF34F8F20BFFDE7BFF35F8F0C
:10B170003060C4E7382C0020352C0020342C00200F
:10B180002C2C002000ED00E00400FA05826800236A
:10B19000936082681361826853618268D3608268B9
:10B1A000536082681360704701600B6843604A68AF
:10B1B000934204BF002343607047436843B1026871
:10B1C00091680B4443605268934204BF002343607C
:10B1D000704770B5446806460D46206818B1B368DC
:10B1E0002946984718B923682B60256070BD2468EC
:10B1F000F3E74368186808B102681A60704743684B
:10B20000186870474368186800B970478842026838
:10B2100002D11A600120704703461046F4E700008F
:10B220000D4930B5A1F594720225914201D8002054
:10B230000EE08B1ADB1093FBF5F302EBC30452F81C
:10B240003330834205D802D204F10802EDE760688A
:10B2500030BD2146E9E700BF3809020008B5FFF715
:10B26000DFFF024B002808BF184608BDFA0702009E
:10B2700070B50E4615460C46A31B9D4201DC2846C0
:10B2800070BD14F8010BFFF79BF9F5E710B50C46FC
:10B290002046FFF77FF90528FAD0012010BD0000F5
:10B2A0005F4B604A1B68C3F3423313604FF0804327
:10B2B0000022C3F80C21C3F81021C3F838254FF041
:10B2C000805203F54043D2F80414C3F82015D2F895
:10B2D0000814C3F82415D2F80C14C3F82815D2F8B2
:10B2E0001014C3F82C15D2F81414C3F83015D2F882
:10B2F0001814C3F83415D2F81C14C3F84015D2F84A
:10B300002014C3F84415D2F82414C3F84815D2F811
:10B310002814C3F84C15D2F82C14C3F85015D2F8E1
:10B320003014C3F85415D2F83414C3F86015D2F8A9
:10B330003814C3F86415D2F83C14C3F86815D2F871
:10B340004014C3F86C15D2F84424C3F87025364B6A
:10B350001A68082A06D1354A12681AB9344AFB21FC
:10B36000C2F818151B68082B0CD1304B1B684BB961
:10B370003049314B0A681B6822F00F0203F00F03BB
:10B3800013430B604FF08043D3F80024D20744BF2F
:10B390006FF00102C3F80024264A136843F00F033C
:10B3A00013604FF01023D3F80022002A03DBD3F8F8
:10B3B0000432002B2FDA214B0122C3F80425D3F8E5
:10B3C0000024002AFBD04FF010221221C2F80012F4
:10B3D000D3F80024002AFBD04FF010231222C3F828
:10B3E0000422164B1A46D3F800140029FBD0002182
:10B3F000C3F80415D2F80034002BFBD0BFF34F8FF5
:10B400000F49104BCA6802F4E0621343CB60BFF3EC
:10B410004F8F00BFFDE70C4B0C4A1A60704700BF0E
:10B42000440200103C0500403001001034010010BF
:10B4300000F00040E40E00405802001000E001401F
:10B4400000ED00E00400FA05EC2200200090D0039B
:10B45000054A4FF0A043105CD3F8043523FA00F0FE
:10B46000C04300F001007047F60C0200044B1A5C68
:10B47000012393404FF0A042C2F80C35704700BF43
:10B48000F60C0200044B1A5C012393404FF0A042DB
:10B49000C2F80835704700BFF60C020008B500205E
:10B4A000FFF7F0FF0120FFF7EDFF0220FFF7EAFFB3
:10B4B0000320BDE80840FFF7E5BF08B50020FFF70F
:10B4C000D5FF0120FFF7D2FF0220FFF7CFFF0320B7
:10B4D000BDE80840FFF7CABF074A4FF0A041105C23
:10B4E000D1F804350122824022EA03001340C1F85A
:10B4F0000805C1F80C357047F60C0200054A4FF0FC
:10B50000A043105CD3F8103523FA00F0C04300F0DC
:10B5100001007047F20C02000B2809D00C2809D05A
:10B52000182809D019280CBF03204FF0FF307047AE
:10B53000002070470120704702207047014B185CC3
:10B54000704700BFF20C0200C20708B501460CD5D7
:10B550004FF0A0430322C3F83427C3F83827C3F8B9
:10B560003C27C3F84027FFF799FF8B070AD54FF018
:10B57000A0430C22C3F82C27C3F83027C3F8602758
:10B58000C3F8642708BD000038B5084C04F108036F
:10B590000546002818BF1C4623682BB11A68226094
:10B5A0005B6828469847F7E738BD00BF442C002069
:10B5B00020B9054B01225A70FFF7E6BF012802D1DE
:10B5C000014A9070F8E770473C2C002020B9034BEB
:10B5D00001225A70FFF7D8BF704700BF3C2C0020F3
:10B5E00038B50B4C237883B90A486360A3602361A4
:10B5F000E36000F0C7F8054603F00CFD08B900F061
:10B60000CDF801232370284638BD8525FBE700BF10
:10B610003C2C0020B1B5010037B502A80023094C2D
:10B6200000F8013DFEF7F4FFE368013BE360E568E5
:10B6300015B900F0C5F8A5709DF80700FFF70CF8E4
:10B6400003B030BD3C2C0020012813B509D003D332
:10B6500003281BD002B010BD0F4B0122C3F880207D
:10B66000F8E702A800230D4C00F8013DFEF7D0FFDB
:10B6700023780BB9FFF7B4FFE3689DF807000133A7
:10B68000E3600123A370FEF7E7FFE3E700F086F82D
:10B69000FFF7C2FFDEE700BF00E100E03C2C002026
:10B6A0001FB503788DF800304368019383688DF8E7
:10B6B0000830C3680393054A054B684653F82130A8
:10B6C00052F82110984705B05DF804FB502C00207B
:10B6D000542C00201FB503788DF800304368019387
:10B6E00083688DF80830C3680393054A054B6846A4
:10B6F00053F8213052F82110984705B05DF804FB4B
:10B70000502C0020542C0020F0B5194B067891F8ED
:10B710001DE043F82620174B94460A6943F826207B
:10B72000154B03F806E00C4607460FCC89B06D4672
:10B730000FC594E80F0085E80F000496BEF1000FD6
:10B740000AD0BCF1000F0D4A694608BF0022381D1F
:10B7500000F0CAFD09B0F0BDBCF1000F084A69460F
:10B7600008BF002207F10C0000F08AFBF2E700BFDF
:10B77000542C0020502C00207C340020A1B6010065
:10B78000D5B60100044A137923B901211060117163
:10B790001846704785207047582C0020074B1A68C0
:10B7A000D2075FBFC02283F8002301221A604FF046
:10B7B00080430122C3F81825704700BF00E100E074
:10B7C000044B01221A604FF08042D2F81834DB0398
:10B7D000FBD470470C00004007B5134B1A6862B1E8
:10B7E000002018601B680093009B4FF080430122EB
:10B7F000C3F808230D4B1B6898470D4B1A6882B19C
:10B8000000221A601B680193019B4FF080430222C3
:10B81000C3F80823054B1B68012003B05DF804EB57
:10B82000184703B05DF804FB00010040582C0020CD
:10B830000401004000F1804000F5C040002382B0C8
:10B84000036003680193019B02B07047800000F120
:10B85000A040D0F8003723F44033C0F80037D0F8C8
:10B86000003743EA0141C0F800177047054B4FF01D
:10B87000FF32072843F8202084BF1B1883F8482094
:10B88000704700BF602C002010B5164C94F858305B
:10B8900033BBFF21E2180133202B82F83010F9D19D
:10B8A0000021C8B2FFF7E2FF01310C29F9D10422CF
:10B8B00000210D4803F097FD0C4BC02283F80623AE
:10B8C00040221A604FF4BE70FFF7B4FF084B4FF0F0
:10B8D0000042C3F80423012384F85830002010BD2F
:10B8E0000820FCE7602C0020B42C002000E100E0E0
:10B8F00000600040034B93F85800003018BF01204F
:10B90000704700BF602C0020F0B5394D2C189446CC
:10B9100094F93040002C68DA8E78C6F34006002E89
:10B9200015BF0023082308270C27BB4201D10420A0
:10B93000F0BD55F8232001324FEA830441D12F187E
:10B9400045F823C087F8303016B9EA1882F8480065
:10B950008A78560716D4D70735D5820002F1A0425F
:10B96000D2F8006726F00206C2F80067214FC60829
:10B9700000F0070C012202FA0CF217F806C042EAA6
:10B980000C02BA558A780E7812F0020224D004F123
:10B99000804303F5C0430002D3F8102522F4473258
:10B9A00022F44072C3F810253604D3F8102500F4B1
:10B9B000F85006F4403630431043C3F81005002019
:10B9C000B6E70133B1E74E7800F5E0724FF0A047DB
:10B9D000B60047F82260C9E7083B2B4493F85000B3
:10B9E00040EA861683F85060E9E70820A0E700BF28
:10B9F000602C0020B42C002038B5204C251895F977
:10BA00003020072A18DD224492F848309B09032B86
:10BA10000DD14FF0A043D3F81035C34013F0010F00
:10BA20000CBF02210321BDE83840FFF70FBF012BF7
:10BA300014BF03210221F6E7D3B2072B1CD89300D1
:10BA400003F1804303F5C043D3F8100540F0010033
:10BA5000C3F8100502F14000800080B2FFF7EAFE53
:10BA600051B195F9303054F823302BB1012303FA4A
:10BA700002F2034BC3F8042338BD00BF602C002042
:10BA8000006000400E4B034493F93020072A02DD8A
:10BA90000021FFF7DBBED3B2072B10D8930003F1D0
:10BAA000804303F5C043D3F8101521F00101C3F81A
:10BAB0001015012303FA02F2024BC3F80823704762
:10BAC000602C0020006000404FF0A043D3F81035F8
:10BAD00023FA00F000F00100704700002DE9FF4755
:10BAE0000024584A584E594D019401211368A2F57B
:10BAF000C040012B80B206D1D6F804330B4202D0ED
:10BB0000FFF798FE0C430432AA424FEA4101EDD1FF
:10BB10004F4B1B68012B0AD14FF4BE70FFF78AFE12
:10BB20004FF0A04344F00044D3F81035019314F0D3
:10BB3000FF0F1AD0474F00250126344210D0AB002A
:10BB400003F1804303F5C043D3F81005D3F8101573
:10BB500057F82530C0F30420C1F3014103B19847E1
:10BB60000135082D4FEA4606E7D1002C66DA00229F
:10BB70004FF0FF33CDE90223DFF8D89001270026EC
:10BB800034464FF0A04809EB060393F95020531CAC
:10BB900045D0D2B222F0C005E90804A8084402F05A
:10BBA000070310F804CC07FA03F31CEA030F36D09E
:10BBB00009EB050C92099CF930C059F82CA0BAF198
:10BBC000000F0AD1032A2AD10DF1080E1EF801C078
:10BBD0004CEA030C0EF801C001E0032AF4D005F58D
:10BBE000E07110F80C0C58F821101842C1F3014113
:10BBF00005D0022913D1032A0BD1114604E00329F1
:10BC00000DD1032A05D102212846FFF71FFE01347A
:10BC1000E4B2BAF1000F02D011462846D0470136EF
:10BC2000042EB0D154B14FF0A043019AD3F810358F
:10BC3000934203D00193029B0393A0E704B0BDE8B5
:10BC4000F08700BF006100400060004020610040BC
:10BC50007C610040602C0020014B1B68184700BF2E
:10BC6000BC2C00200D4B984237B50D4610D102A8D0
:10BC7000002300F8013DFEF7CBFC094B1C7914B9F9
:10BC800001221D601A719DF80700FEF7E5FC14B94A
:10BC9000002003B030BD1120FBE700BF00200040B2
:10BCA000BC2C00200023435082B043580193019BD9
:10BCB00002B070470A4610B54FF48E71FFF7F2FFDD
:10BCC000136A9168C95C136A01331362C0F81C15CA
:10BCD00010BD08B502464FF492710068FFF7E2FF0D
:10BCE0004FF484711068FFF7DDFF136801221A60BA
:10BCF00008BD10B58B690A464FF4847123B9FFF76C
:10BD0000D1FFD0F8183510BDFFF7CCFF536AD168CA
:10BD1000D0F81805C854536A01335362F3E70000A2
:10BD20001FB501238DF80030044BCDE90110D3E994
:10BD300000126846904705B05DF804FBC42C002053
:10BD400030B54D4AD2F8043313F4007F85B0154660
:10BD50004FD0D2F82431002B4BD04FF492711046C3
:10BD6000FFF7A0FF4FF40173C2F80833434B93F879
:10BD7000291009B9012151603F4902228DF80020A4
:10BD8000D1F88024C1F8802403929A690292DA687B
:10BD900001920022C3E906226846D3E900129047C7
:10BDA0003548D0F81C315BB134494A690B6A9A4274
:10BDB0000A464CD991F82830002B48D1FFF77AFF7A
:10BDC0002D4AD2F8443193B14FF4A2711046FFF7D7
:10BDD00069FF2A4B93F8291009B1012111609A6972
:10BDE0002AB100229A61586AD968FFF799FF05B015
:10BDF00030BDD5F804335B07D2D5D5F80831002B18
:10BE0000CED01E4C1C482146FFF773FF636AA2691F
:10BE10009A422346C4D1E26952B12369E168E360E2
:10BE20000023606AA261E3616362FFF779FFB7E70D
:10BE300094F829200AB901226A600F4A4FF401716F
:10BE4000C2F8081300229A61586AD968EDE74FF4E6
:10BE50008E710948FFF726FF5369002BB0D0516956
:10BE60000291002391688DF800300191536168467A
:10BE7000D2E900139847A3E700200040C42C00201B
:10BE80002DE9F843594F067991462C2202FB0672A0
:10BE9000054692F82A200C46002A40F0A08054491A
:10BEA0000068FFF7DFFE8046002840F09B80226894
:10BEB000501C0BD0012393404FF0A0420321C2F845
:10BEC0000835236803F5E07342F823106368591CB2
:10BED0001FBF03F5E0734FF0A042002142F823108A
:10BEE0002B68A269C3F82425217D637D2A680B4352
:10BEF000C2F86C35D4E900122B68C3F81425C3F8D6
:10BF00000C15237D012B1FD1A3685A1C1FBF4FF0B6
:10BF1000A04203F5E073002142F82310E268531CAD
:10BF20000BD0012393404FF0A0420321C2F8083503
:10BF3000E36803F5E07342F82310D4E902122B689A
:10BF4000C3F80825C3F810152C237343FA18C2F858
:10BF500004902269FA50B9F1000F2DD04FF48E7180
:10BF60002868227FFFF79EFE4FF4A2712868FFF732
:10BF700099FE2B681F49C3F804132968090B4BB2BB
:10BF8000002BAEBF03F1604301F00F011A4B4FEAE3
:10BF90004212D2B2AABF03F561435A5483F8002378
:10BFA0002B681B0B5AB2012103F01F0301FA03F3A4
:10BFB0005209124941F822302B680422C3F80025A7
:10BFC0002C2303FB06730022C3E9062283F82920F1
:10BFD0005A61012283F82A204046BDE8F8834FF0D9
:10BFE0000808F9E74FF01108F6E700BFC42C00205D
:10BFF00041BD01008000020014ED00E000E100E01E
:10C000002DE9F047224B07794FF02C0909FB073443
:10C01000064665699846002D36D16261A1602562A9
:10C0200084F828504FF48E710068FFF73BFE3368A8
:10C0300001229A6021463068FFF73CFE6368A14602
:10C0400023BB3568D4F814A0236A9A4511D8336805
:10C05000D3F81C21002AFBD00122DA6000202C2317
:10C0600003FB078700237B61BDE8F08794F8283045
:10C0700043B9D5F81C31002BF8D049462846FFF7C4
:10C0800019FEE1E70F20EAE71120EDE72846EBE78C
:10C09000C42C00200379044A2C2101FB0323586996
:10C0A000003018BF01207047C42C00202DE9F84350
:10C0B000384E05792C2303FB056307465C6824B1E1
:10C0C00003684FF40170C3F808032C2303FB0563D6
:10C0D000986950B1D86900283ED024B13B684FF42C
:10C0E0000172C3F80423112034E09A61D9605862C8
:10C0F000D8612C2303FB056393F829301BB910B9D1
:10C100003846FFF7E6FD4FF02C0909FB0568386853
:10C11000D8F80430002B34D14FF4A271FFF7C2FDE0
:10C12000C1463868D0F82431D0F80821D0F844410D
:10C13000B2B90CB9002BF4D02C2202FB0565002209
:10C14000AA611BBB24BB95F829103B680122B1B141
:10C150001A600020BDE8F8831961DA610120C8E7A0
:10C16000002BE9D1002CE7D14946FFF7C2FDD8F8F2
:10C170002430D8F818209A42D3D82346DCE75A60F6
:10C18000E7E74FF40173C0F80433E2E70320E1E787
:10C190000F20DFE7C42C00200023435082B0435817
:10C1A0000193019B02B070471FB501238DF8003049
:10C1B000044BCDE90110D3E900126846904705B061
:10C1C0005DF804FBF02C00207FB5454AD2F82461CD
:10C1D000002E63D010464FF49271FFF7DDFF02236B
:10C1E0008DF80030D2F88034C2F880340393D2F84E
:10C1F0003C3502933B4BDA6801920022C3E90622E8
:10C200006846D3E900129047354AD2F844317BB1F1
:10C210004FF4A2711046FFF7BFFF324B996939B155
:10C220000021C3E90611D968D2F83C05FFF7BCFF2D
:10C230002B4AD2F82031B3B14FF490711046FFF77A
:10C24000ABFF0123D360274B596961B1D2F84C157C
:10C250000291002299688DF8002001915A61684688
:10C26000D3E9001290471E4AD2F85831A3B14FF4D7
:10C27000AC711046FFF790FF1A4B596961B1D2F8C3
:10C280004C150291002299688DF8002001915A61A5
:10C290006846D3E90012904704B070BDD2F810315F
:10C2A000002BB1D04FF488711046FFF775FF0D4B8E
:10C2B000D2F83C0599698842A6D1DC69D96864B195
:10C2C000D2F8005225F02005C2F800521A699C618C
:10C2D000DA60DE61FFF768FF96E79C61FAE700BF6E
:10C2E00000200040F02C00202DE9F8435F4F067934
:10C2F0009146242202FB0672054692F820200C4645
:10C30000002A40F0AD805A490068FFF7ABFC804638
:10C31000002840F0A8802268501C0BD001239340D5
:10C320004FF0A0420321C2F80835236803F5E073FB
:10C3300042F823106368591C1FBF03F5E0734FF0E8
:10C34000A042002142F823102B68A269C3F82425DB
:10C35000217D637D2A680B43C2F86C35D4E9002146
:10C360002B68C3F80C25C3F81415237D012B1FD1AE
:10C37000A3685A1C1FBF4FF0A04203F5E0730021D1
:10C3800042F82310E268531C0BD0012393404FF076
:10C39000A0420321C2F80835E36803F5E07342F8D0
:10C3A0002310D4E902122B68C3F80825C3F810152E
:10C3B00024237343FA18C2F804902269FA50B9F1A1
:10C3C000000F3CD04FF488712868227FFFF7E4FE0D
:10C3D0004FF490712868FFF7DFFE4FF492712868E0
:10C3E000FFF7DAFE4FF4A2712868FFF7D5FE4FF48D
:10C3F000AC712868FFF7D0FE2B681E49C3F8041300
:10C400002968090B4BB2002BAEBF03F1604301F06A
:10C410000F01194B4FEA4212D2B2AABF03F5614392
:10C420005A5483F800232B681B0B5AB2012103F0E6
:10C430001F0301FA03F35209104941F822302B6817
:10C440000822C3F80025242303FB06730022C3E956
:10C4500006225A61012283F820204046BDE8F88375
:10C460004FF00808F9E74FF01108F6E7F02C00202C
:10C47000C9C101001003420014ED00E000E100E03A
:10C4800001F06043B3F1005F2DE9F04106463BD176
:10C49000204B0779242505FB073598466C69002C4D
:10C4A00034D16A61A96000684FF49071FFF774FE9F
:10C4B0004FF4AC713068FFF76FFE33686A69A968A2
:10C4C000C3F84415C3F84825336801229A606B68A5
:10C4D000F3B93368D3F82011D3F8582119B9002AD9
:10C4E000F8D00F2009E0002AFBD10122DA6032687F
:10C4F000D2F85831002BFBD00020242303FB078700
:10C5000000237B61BDE8F0811020FBE71120F9E7F3
:10C510002046F7E7F02C00200379044A242101FB90
:10C5200003235869003018BF01207047F02C002009
:10C53000F8B501F06043B3F1005F04460F4660D1E7
:10C540000379314D242101FB0351486820B1216852
:10C550004FF40476C1F80863242101FB03539E695C
:10C5600056B1D96900293BD020B123684FF4047239
:10C57000C3F80423112032E09A61DF60DE614FF4DA
:10C5800088712068FFF708FE4FF4A2712068FFF75A
:10C5900003FE2368C3F83475C3F8382523681EBB2F
:10C5A00001221A6022792368242101FB0251496883
:10C5B00009BBD3F81041D3F84411D3F8240114B9BE
:10C5C00009B90028F5D0242303FB02550023984223
:10C5D00014BF032018469942AB6118BF0F20F8BD65
:10C5E0001F61DA610126CAE7D3F8002242F0200277
:10C5F000C3F80022D6E74FF40472C3F804230020E6
:10C60000EDE71020EBE700BFF02C00200220FEF742
:10C6100063BF00002DE9F04781460D46FEF77CFF21
:10C620000328044604D8012D04D024D3022D2FD092
:10C63000BDE8F087194D47003A18A918AE5C4A7852
:10C6400052B1DFF86880164842464FF48041FDF74A
:10C65000DCFD08B988F800903B192B449A78114BFF
:10C660001A55002EE4D0104B1B68002BE0D030464A
:10C67000BDE8F04718470A48FDF7DFFD074B04EB1C
:10C68000440213449E78074B1B5DB342D0D1E8E7C8
:10C69000024B00EB40041C446678E2E7782D002052
:10C6A000382D0020912D00208C2D0020142D0020ED
:10C6B00002210078FFF7AEBF08B5094B1B7853B1D4
:10C6C0000020FEF7DFFE0120FEF7DCFE0320BDE8C0
:10C6D0000840FEF7D7BEBDE80840FEF7DFBE00BF4A
:10C6E000152D0020F8B57B4C237805461BB100239F
:10C6F0002370FFF7E1FF172D00F28880DFE805F0D7
:10C700000C17174354657680888D888D959A9A9A70
:10C710009A9AC4C9D1D9E4E4FFF7CEFF6E48FDF779
:10C720008CFD6E4B002204461A702046F8BD002096
:10C73000FEF78EFEE8B10020FEF7A4FE022D1FD109
:10C740004FF4FA71654B1D704FF400404FF47A744A
:10C750000025E0FB01454FF4FA62002320462946FC
:10C7600003F0CAFD002201465B48BDE8F840FDF732
:10C770004CBDFEF77BFE022DE2D04FF4C871E1E71D
:10C780004FF47A61DEE70020FEF762FE40B1002040
:10C79000FEF778FE4FF44871504B03221A70D3E72E
:10C7A000FEF764FEC821F7E70020FEF751FE38B11E
:10C7B0000020FEF767FE4FF47A61484B0422EDE754
:10C7C000FEF754FE4FF4C871F7E70020FEF740FE75
:10C7D00048B10020FEF756FE404B05221A7040F685
:10C7E000CD410022C0E7FEF741FEF5E70020FEF74D
:10C7F00073FE3A4B06221A70002240F26661B3E7DC
:10C800000020FEF733FE354B07221A7000248CE718
:10C8100001202070FEF760FEEEE701202070FEF799
:10C820005BFE00224FF400519EE7FEF746FE2B4BC5
:10C830000C22EAE72A482B4EFDF7FFFCD5F1110543
:10C8400004461CD0D8B9012D13D0C8235D434FF442
:10C8500000474FF47A7000214FF4FA620023C7FBBF
:10C86000050103F049FD224601461D48FDF7CDFCB8
:10C8700004460220FEF7FAFD0123337055E702203B
:10C88000FEF700FE0023F8E7FFF716FF134B122216
:10C89000BBE7FFF711FF0020FEF7E8FD0F4B132267
:10C8A000B3E7FFF709FF0120FEF7E0FD0B4B142271
:10C8B000ABE7FFF701FF0020FEF7D8FD0120FEF7F0
:10C8C000D5FD064B1522A0E7FEF7F7FD034B1D70C3
:10C8D0009CE700BF882D0020582D0020902D0020BF
:10C8E000182D0020152D0020044B1B68DB0703D5F5
:10C8F000034B1878FFF7F6BE704700BF842D002069
:10C90000902D0020032801D8FEF7F8BD00207047C5
:10C91000044B1B6813F0010301D0FFF7E3BE184678
:10C92000704700BF842D002038B51C4B18601C4B8D
:10C9300010F00204054619601AD01A4B1A480E224C
:10C940001A700F22DA7010229A7111225A72042181
:10C9500040F23332FDF776FA044648B9FDF7CAFAD9
:10C96000044628B90146114A1148FDF743FC044624
:10C97000EB0711D50120FEF7E7FD6CB921460D4A02
:10C980000D48FDF737FC044630B90C4A0C4801212C
:10C99000BDE83840FDF72EBC204638BD842D002070
:10C9A0008C2D0020782D00201C0D0200B1C6010046
:10C9B000400D0200E9C80100440D02000DC601004F
:10C9C0003C0D0200032812D8012A0BD1012908D1FD
:10C9D00000F10E02D2B200EB40000C4B1A540020C2
:10C9E000704700220129F6D009D3022901D007207F
:10C9F0007047064B00EB400018444270EFE7034BD2
:10CA000000EB400018448270E9E700BF782D002059
:10CA1000FDF786BA032808B512D8FEF78FFD80000F
:10CA200000F1A040D0F8003723F44033C0F80037BD
:10CA3000D0F8003743F44033C0F80037002008BD79
:10CA40000620FCE708B5012202210020FFF7BAFF0B
:10CA500008B1072810D1072202210120FFF7B2FFF9
:10CA600008B1072808D100210A220846FFF7AAFFCB
:10CA700010B1072808BF002008BD000010B50388CA
:10CA8000102B02D0112B1ED010BD1A4C2168B1B949
:10CA900001220846FFF796FF08B1072824D1072294
:10CAA00002210120FFF78EFF08B107281CD10422C4
:10CAB00002210020FFF786FF08B1072814D1236860
:10CAC00001332360E0E70B4A1368013B1360002B3E
:10CAD000DAD1FFF7B7FF0028D6D0074B1B68002B31
:10CAE000D2D0BDE810401847034B1B68002BE6D09E
:10CAF0009847E4E79C2D0020982D002008B50020E1
:10CB0000FFF788FF08B1062806D10120FFF782FF52
:10CB100010B1062808BF002008BD00000D4B10B55D
:10CB200018600C4629B10120FFF7ECFE40B102234A
:10CB30002370094B1B6853B9BDE81040FFF782BF53
:10CB4000FFF7E0FE08B10B23F2E72070F1E70020C9
:10CB500010BD00BF982D00209C2D0020A8DF70473D
:10CB6000ADDF7047AEDF704762DF704770B50546D6
:10CB70008AB00C46002973D0002871D00388502B4E
:10CB800039D0572B00F08380102B69D10AAA0026D8
:10CB9000818842F8246D606C01F027FD082231463F
:10CBA0000DEB020002F01FFC022302AA2189A888D3
:10CBB000CDF80CD00293FFF7D3FF002850D1A36C1F
:10CBC000002B4DD0039801F050FD002848D0019B68
:10CBD0000BB101221A701822002104A802F003FCF4
:10CBE00002238DF81030AB88ADF81830019B059406
:10CBF0000793A36C32E08188606C02AA01F0F5FC17
:10CC00001822002104A802F0EEFBAB88ADF8183022
:10CC10002189EB88029A0594994207920ED0218AC5
:10CC200099420BD0218B994208D0218C994205D092
:10CC3000218D994202D0218E994218D12E8A022E3E
:10CC400015D16AB105F1120001F00FFD029B48B148
:10CC500001221A708DF81060A36C0BB104A89847DC
:10CC60000AB070BD187003238DF81030F4E7A28E5F
:10CC70009A42F5D1A36C002BF2D000228DF810203F
:10CC800005F1120208922A8AADF82420E6E781888D
:10CC9000606C02AA01F0A9FC01460028E0D1029BC9
:10CCA0001B78002BDCD0182204A802F09CFB012387
:10CCB0008DF81030AB88ADF818300594029B97E7DB
:10CCC000F0B5AC4B8FB002AA05460E4603F1100C2E
:10CCD000174618685968144603C40833634522464A
:10CCE000F7D1002D00F04381002E00F040817368E1
:10CCF000AB6429463846FFF737FF0446002840F06A
:10CD000033812A460EA912F8023B8DF806304FF403
:10CD10007F4321F8343D0120FFF720FF044600281F
:10CD200040F022810146202206A802F05CFB2A4640
:10CD30004FF60173ADF8183012F8043B8DF81A3035
:10CD40008D4B07939DF825306888012643F010032A
:10CD500006A98DF824608DF825308DF829608DF8AE
:10CD60002A608DF82B6001F093FC0446002840F007
:10CD7000FB800146202206A802F035FB2A464FF62A
:10CD80000273ADF8183012F80C3B8DF81A309DF88C
:10CD9000253068888DF8246043F010034FF00117A8
:10CDA00006A907978DF825308DF829608DF82A603F
:10CDB0008DF82B6001F06CFC0446002840F0D48014
:10CDC0000146202206A802F00EFB2A464FF6037306
:10CDD000ADF8183012F8143B8DF81A309DF8253054
:10CDE0006888079743F0100306A98DF824608DF832
:10CDF00025308DF829608DF82A608DF82B6001F0C0
:10CE000047FC0446002840F0AF800146202206A8D7
:10CE100002F0E9FA2A464FF60573ADF8183012F819
:10CE2000343B8DF81A309DF825306888079743F019
:10CE30000C0306A98DF824608DF825308DF8296043
:10CE40008DF82A6001F024FC0446002840F08C8014
:10CE50000146202206A802F0C6FA2A464FF60773BA
:10CE6000ADF8183012F81C3B8DF81A309DF82530BB
:10CE70006888079743F0100306A98DF824608DF8A1
:10CE800025308DF829608DF82A608DF82B6001F02F
:10CE9000FFFB0446002867D12022002106A802F0EB
:10CEA000A2FA2A464FF60873ADF8183012F8243B60
:10CEB0008DF81A309DF825306888079743F01003E5
:10CEC00006A98DF824608DF825308DF829608DF83D
:10CED0002A608DF82B6001F0DBFB0446002843D16B
:10CEE0000146202206A802F07EFA2A464FF6097370
:10CEF000ADF8183012F82C3B8DF81A309DF825301B
:10CF00006888079764F3041306A98DF824608DF8E8
:10CF100025308DF829608DF82A608DF82B6001F09E
:10CF2000B7FB044600BB0146202206A802F05BFACC
:10CF30002A464FF61173ADF8183012F83C3B8DF8C5
:10CF40001A300E4B07939DF8253068888DF82460C1
:10CF500043F00C0306A98DF825308DF829608DF873
:10CF60002A6001F095FB044620460FB0F0BD0E2468
:10CF7000FAE700BF480D020007000100F4000100BD
:10CF8000F0B50F4687B016461C46054618B301AAF1
:10CF90001946406C01F029FBD8B94FF6FF739C424B
:10CFA0001BD0019BCBB11B78CBB13388F42B18D8A5
:10CFB0000146102202A802F016FAAB88ADF808303C
:10CFC00002A901232046CDE904678DF80A30FFF756
:10CFD000C9FD07B0F0BD0E20FBE70520F9E70820EA
:10CFE000F7E70720F5E776DF70477ADF70477CDFE9
:10CFF00070477FDF70478FDF7047B1DF704733DFE7
:10D000007047FCF7CBBF000037B50723ADF80630FB
:10D010000378012B25D003D3022B22D003B030BDDF
:10D02000124C134D20782844FDF7B4FA2378E85CBD
:10D03000FDF7C6FA23780133DBB2062B2370EDD956
:10D04000EA1812F8012C012AE8D1D91F094B0A4825
:10D050001B880DF106022944FFF792FF002323707D
:10D06000DCE74068FCF79AFFD8E700BFC02D00203E
:10D07000AC2D0020042300200823002008B50C4B11
:10D080000C4819784A1E1A704FF6FE7201F0D3FD53
:10D0900030F008020BD020F00202112A07D043F230
:10D0A0000142904203D0BDE80840FCF777BF08BDBD
:10D0B000F0220020BC2E002013B50388212B04464B
:10D0C0003BD01FD8112B28D0132B3ED0102B32D1A0
:10D0D000264B27482749C01AC008000440F0030027
:10D0E000FCF736FC0720FFF713FC08B1FCF756FFEE
:10D0F000214BA1882148198001F0A6FCD8B1FCF78A
:10D100004DFF18E0522B28D0562B01D03B2B12D1CB
:10D110001321A088FFF767FFF0E7144B1448184964
:10D12000C01AC008000440F00300FCF711FC124BC9
:10D130004FF6FF721A8002B010BD02A9002321F839
:10D14000043D8088FFF757FFD8E70B4800231A46B5
:10D1500085210088FFF74DFFD0E7074800231A46D6
:10D1600019460088FFF749FFC8E700BF0014020016
:10D17000281402007C0D020004230020202F002030
:10D18000860D02000C4B4A881B889A4212D10A88ED
:10D1900040F677239A420DD1084A09488B880949FD
:10D1A000801A033BC0089BB200041A4640F00300FB
:10D1B000FCF7DCBB704700BF042300200014020012
:10D1C00028140200B60D020008B503784BB9054BD0
:10D1D0003B211888FFF707FF18B1BDE80840FCF7AE
:10D1E000DDBE08BD04230020072808B51BD00A288F
:10D1F0000DD0042821D1114B13211888FFF7F3FE1D
:10D2000030F0080319D0BDE80840FCF7C7BEFEF7B0
:10D2100045F9FFF7FDFB08B1FCF7C0FE0120BDE8B2
:10D220000840FDF759BF054B1A884FF6FF739A4225
:10D2300003D1034800F0AFFFE2E708BD042300205C
:10D24000C42D0020012908B50AD1002240F26661F0
:10D250000448FCF7DAFF18B1BDE80840FCF79EBEB1
:10D2600008BD00BFF02E00202DE9F04105780746EB
:10D270005DB9104C104BDFF84480E41AE408240434
:10D2800044F00104BB8A9D4201D3BDE8F0813B69B3
:10D29000585DFDF795F9064648B11128F7D00246CA
:10D2A00041462046FCF758FB3046FCF777FE013537
:10D2B000E8E700BF2814020000140200500E02002C
:10D2C00008B548B1032814D10220FFF721FB80B133
:10D2D000BDE80840FCF762BEFFF71AFB08B1FCF797
:10D2E0005DFEFFF70BFC08B1FCF758FEFFF787FE69
:10D2F000EDE708BD10B50020FCF73CFE194B10B35C
:10D300001A680132132A1A604FF0000211D91A600C
:10D31000154CFEF7C3F844F001040020FCF72AFE88
:10D3200018B9BDE81040FDF7D7BE4FF47A40A047CA
:10D33000F3E740F266610D48FCF767FF80B1BDE896
:10D340001040FCF72BBE186009480A4B0A49C01A66
:10D35000C008000440F00300BDE81040FCF7F8BA34
:10D3600010BD00BFA82D0020B00D0200F02E00203F
:10D370002814020000140200930D0200FCF70EBEF8
:10D3800008B50849084801F073FA08B1FCF706FE31
:10D39000F721054801F07EFA18B1BDE80840FCF716
:10D3A000FDBD08BD85D10100102F00200000000048
:10D3B000F0B5334D0FCDC7B01BAC0FC495E80300DB
:10D3C000304B314A179384E803004FF4807317AC55
:10D3D000CDE9192318932D4A072321461BA8FDF7F1
:10D3E00081F808B1FCF7DAFD4FF480410020FCF72A
:10D3F000E9F808B1FCF7D2FDFCF71CF8FCF7C8FE11
:10D4000008B1FCF7CBFD224A22480121FCF7F2FECD
:10D4100008B1FCF7C3FD20490120FFF785FA08B1E8
:10D42000FCF7BCFD1BA90020FFF778FB08B1FCF757
:10D43000B5FD1A481A4B4360032383700B23038006
:10D4400064220121FCF7FEFC08B1FCF7A7FDFCF704
:10D4500051FD08B1FCF7A2FD124A13480021FCF768
:10D46000C9FE08B1FCF79AFD104E152546F00106DD
:10D470000020FCF77FFDD8B90420FDF72DFE24E045
:10D48000640D0200302F00203030002009D0010050
:10D490007DD00100D40D0200E9D10100A02D0020B3
:10D4A00045D20100F5D20100D80D0200B00D0200F6
:10D4B00064274FF47A40B047013FFAD10320013D81
:10D4C000FEF70AF815F0FF05D2D10320FDF7CEFFD5
:10D4D000FDF7E0FD08B1FCF761FD01F05FFD08B16B
:10D4E000FCF75CFD00231BA901201B9301F0E2FD6A
:10D4F00008B1FCF753FD1BA801F0A8FE08B1FCF72A
:10D500004DFD212394488DF85C3001F095FF924940
:10D5100082B22046FFF76BFD08B1FCF73FFD00210A
:10D5200008221BA801F05FFF8C494FF0C8731BA8AD
:10D53000CDE91B13FFF759FD08B1FCF72FFDFFF7ED
:10D540001FFF874B8748019301A901F06BFA08B1CF
:10D55000FCF724FD0021082204A801F044FF824BBF
:10D560008248059304A9FFF7ABFB08B1FCF716FD51
:10D5700010220021204601F036FF002201231792DD
:10D580001992214664227A488DF860308DF868201F
:10D590008DF869308DF86A308DF86B3001F0DAFA69
:10D5A00008B1FCF7FBFC402200211BA801F01BFF87
:10D5B000704B0EAA03F108071646186859681546FD
:10D5C00003C50833BB422A46F7D16B4A1868286066
:10D5D000516810681B792B7108AB03C3127A1A705B
:10D5E000664A1C9610685168127A0BAB03C31A7016
:10D5F000634B1868029056A1D1E90001CDE91201F0
:10D60000D221ADF81A104FF4B061ADF81C104FF4F0
:10D610008071ADF81E100D21ADF86C100921ADF828
:10D62000741008A91E9108211B79ADF88C100BA964
:10D6300002AA8DF80C300125524B24910421149339
:10D640001BA806AB8DF81850ADF8941026924E49E1
:10D65000299312AA279201F012F81BA88DF8A8505E
:10D6600001F080FB08B1FCF799FC4FF4C043ADF822
:10D670005C300625454B1993AC2200211BA8ADF860
:10D68000605001F0B0FE022303228DF86C30ADF83B
:10D69000B82001233E4A8DF86E302F928DF8E83085
:10D6A000402244F25063CDE93D231BA9394B3A484F
:10D6B0008DF86F502494449300F0C4FB08B1FCF73C
:10D6C0006DFC0121344800F0BAFB1C2200211BA88C
:10D6D00001F089FE00234FF4A032CDE91B32ADF8F2
:10D6E0007A304FF4F0228DF87C302C4B1D92209331
:10D6F00003222B4B8DF878201BA8219300F06CFEA1
:10D7000008B1FCF74BFC274801F076FE264B274872
:10D710002749C01AC008000440F00300FCF718F9BC
:10D7200000224FF480412348FCF76FFD08B1FCF75D
:10D7300035FC0321184800F0F7FB08B1FCF72EFC7C
:10D74000FBF79AFF0028FBD1FDF7BAFCF8E700BF12
:10D75000123456FFFE9ABCDEDC0D020010003C00C5
:10D7600003D00100202F002069D2010008230020EF
:10D77000BC2E00202C0E0200390E0200420E0200C8
:10D780004B0E02009ABCDE00E50D0200FE220020D6
:10D79000F2220020C1D20100C42D0020C9D1010015
:10D7A0007DD30100F10D02000014020028140200D4
:10D7B000030E0200D02E00200369C1688B429DBF7A
:10D7C0008268D21802F1FF3203F1FF3394BF501A7E
:10D7D000581A70472DE9F041D0E902670446F61B5C
:10D7E0004068964288461546384405D901F0F0FD58
:10D7F0003D44E560BDE8F0813246AD1B01F0E8FD37
:10D800002A4608EB0601606801F0E2FDF1E72DE928
:10D81000F843C5680646894617464FF00008346944
:10D82000B3687068A54228BFE418013C621B5C1B0A
:10D83000BC4228BF3C46944228BF1446494628446F
:10D84000224601F0C5FDB3682544AB4208BF002560
:10D850003F1BA044A144F560E1D14046BDE8F883F8
:10D8600010B5114C114AA2610223C4E90433104BD4
:10D87000E361A2644FF400730E4A2362E264002362
:10D8800010220D49A362E01D6362E362A365636534
:10D89000E365226501F0C8FD0849204601F0C4FD9A
:10D8A0002023A37110BD00BF803400207B0E020036
:10D8B0004031002030310020840E0200880E02002A
:10D8C000F8B5184C182300FB033503FB0040254432
:10D8D000C46A012C0F46164611D003D3022C1BD06C
:10D8E00000240AE02846FFF767FF864205D8324643
:10D8F00039462846FFF76EFF34462046F8BD2846D5
:10D90000FFF75AFF8642344628BF0446224639466E
:10D910002846FFF75FFFF0E72846BDE8F840FFF72D
:10D9200076BF00BF80340020FFF79ABF6DDF7047DD
:10D9300079DF70477DDF704764DF70472DE9F74F6F
:10D940000C9CBDF834B02788002580468A46914655
:10D950002E46B8F80020B2420BDC35B12288013ADD
:10D96000D21B92B2FF2A39D8DA55002003B0BDE8A5
:10D97000F08FD8F8042052F82600019000220DF113
:10D98000030101A8FFF7D8FF0028EFD19DF803207D
:10D990004A4521D12288002D14BF0020022002EB2D
:10D9A00009010144594519DC3DB9013292B2228086
:10D9B00003F802A022880132228022880DF103019F
:10D9C0001A4401A8FFF7B8FF0028CFD121889DF89D
:10D9D00003200A44228001250136BAE70C20C5E75E
:10D9E0002DE9F341089CBDF824501746CDE90045C8
:10D9F00002220646FFF7A2FF48B9102239463046F8
:10DA0000CDE9084502B0BDE8F041FFF797BF02B08D
:10DA1000BDE8F0812DE9F04F00231688138090F8BF
:10DA20002D3085B007460D46144653B3082E01D855
:10DA30000C2026E102A8FFF779FF002840F02181A1
:10DA400013880822CA54238801339BB21B222380E7
:10DA5000CA542088013080B2208006220DF10901CD
:10DA6000284401F0B5FC23889DF8082006339BB2BA
:10DA700012F0FE0218BF01222380EA5423880133EA
:10DA80002380BB78FBB123880433B342D0D802A8EB
:10DA9000FFF74EFF002840F0F48023880322EA5469
:10DAA000238801339BB219222380EA542388BDF8CE
:10DAB000082001339BB2E9182380EA54120A4A7005
:10DAC000238802332380FA789AB12388D91CB14283
:10DAD000AED80221E954238801339BB2012123806F
:10DAE000E95423880B449BB22380EA5423880B44D7
:10DAF00023807A68AAB12388D91CB14298D8022120
:10DB000092F90020E954238801339BB20A21238033
:10DB1000E954238801339BB22380EA5423880133DC
:10DB200023803B89002B40F0A0803B8A5BB1CDE98C
:10DB300000462B460722032107F11000FFF750FF94
:10DB4000002840F09E803B8B5BB1CDE900462B4620
:10DB50001522142107F11800FFF742FF002840F0BA
:10DB600090803A6A002A40F08F80D7F82480B8F17C
:10DB7000000F30D0B8F804302188981C8A1C024469
:10DB8000B2423FF655AFFE283FF652AF03336B5417
:10DB9000238801339BB2FF222380EA542388013378
:10DBA0009BB22380B8F80020EA54E918120A4A70A0
:10DBB0002088023080B22080B8F804205AB1D8F80A
:10DBC000081000296AD0284401F002FC2388B8F824
:10DBD00004201344238097F82C30002B40F09980C8
:10DBE000387800284DD03B88012B57D021888A1CDB
:10DBF000B2423FF61DAF012805D17B7802330B44BA
:10DC00009E42FFF415AF023E761A04A9B6B221F87F
:10DC1000086DA818FFF78EFE98BB3978BDF808206C
:10DC2000022900F0BB807B78934202D3B24240F2DB
:10DC3000B380012940F0B4809BB29E42C0F0B08016
:10DC4000ADF808300821BDF80830FE2B3FF6F0AEE5
:10DC500022880133AB542288013292B22280A95427
:10DC600022881344238000200BE0CDE900462B4698
:10DC70000622022107F10800FFF7B2FE00283FF458
:10DC800054AF05B0BDE8F08FB4F800C00CF1060346
:10DC9000B3423FF6CDAE1188052901D80720F0E741
:10DCA0006FF4486E01EB0E039BB24FF27D3E73455D
:10DCB000F4D95388052BF1D96FF44860181880B255
:10DCC0007045EBD94FF6FF70814203D0834201D0FB
:10DCD0009942E3D8052305F80C30238801339BB221
:10DCE00012212380E954238801339BB223801188B9
:10DCF000E954E818090A4170238802339BB2238053
:10DD00005288EA54E918120A4A70238802332380A1
:10DD10002BE7BB6A002BC1D04FF000094FF00C0A73
:10DD20004FF0160B97F82C305FFA89F293427FF68A
:10DD300057AFB96A0AFB02F201EB0208B8F80430E7
:10DD4000981CFE283FF674AE208803332B5423889A
:10DD500001339BB2238005F803B0238801339BB2C3
:10DD600023808A5AEA54E918120A4A70208802303D
:10DD700080B22080B8F804205AB1D8F808100029E1
:10DD80008CD0284401F024FB2388B8F804201344E5
:10DD9000238009F10109C5E7092154E7B242FBD903
:10DDA000ADF808604EE770B5E0B14AB116880024BE
:10DDB000B44203D305196D789D4208D0A14201D821
:10DDC00000200FE0055D01352C44A4B2F0E7A1422C
:10DDD000F6D9005DA31C01389BB280B21C188C429E
:10DDE000EEDC138070BD37B502AC002324F8023D91
:10DDF000134622460546FFF7D6FF10B1BDF80600D0
:10DE0000284403B030BD72DF704773DF704774DFA2
:10DE1000704738B5012204460D46B0F8D810D0F846
:10DE2000D400FFF7E0FF00B1057004F13C0204F1FB
:10DE3000D40104F15400BDE83840FFF7E4BF80F896
:10DE400030107047F8B504460F46002968D0002806
:10DE500066D091F87A301BB191F89830002B61D1DF
:10DE6000D7F8A030042B5DD0D7F89C30042B59D0C4
:10DE70004FF0000C84F802C007F178060FCE251D84
:10DE80000FC50FCE0FC596E8070085E8070084F898
:10DE900030C0D7F8A4306363D7F8A830A3634FF637
:10DEA000FF7504F1D403C4F8E430A4F8E850072265
:10DEB000614604F1EA0001F096FA23780BB984F880
:10DEC0005450224604F155011F25C4F8D410384699
:10DED00022F8D85FFFF79EFD08BB224604F19301AC
:10DEE000C4F8DC1007F13C0022F8E05FFFF792FD78
:10DEF000A8B9A269A4F8482001236269206484F8C3
:10DF000050006264014684F8513084F83C3004F1DA
:10DF10003C0204F15400FFF776FF00B92370F8BD0E
:10DF20000E20FCE70720FAE7F8B5077804460D460F
:10DF3000002F00F0F98000F1EA06A170072200210D
:10DF4000304601F050FAE38813B1A378012B04D0D6
:10DF5000E3794BB1A378022B06D1636BA3B1012205
:10DF600084F8F12008209847334604F1F00113F8B3
:10DF7000012F12B99942FAD117466B1E032B52D8C2
:10DF8000DFE803F0050B0F1284F8F130ECE7A3791A
:10DF90001BB194F8243003B95FB9E3790BB1002FBA
:10DFA00043D1237A002B42D1637A002B0CBF00258A
:10DFB0000425636BA570002B3BD0033D012D38D8A1
:10DFC0006279002A35D094F8F22092BB84F8F420CC
:10DFD000012284F8F3200720984704F13C05182219
:10DFE0000021284601F0FFF9E26A0121531E8B420D
:10DFF00088BF0A4694F8243084F83C1084F85120F5
:10E0000033B1A36A5A1E022A28BF0B4684F8523045
:10E01000A278002384F85030042A1BD8DFE802F0ED
:10E020006C0D223252000025C3E70225C1E703250B
:10E03000BFE7002384F8F330CFE7C4F8E430C4E945
:10E0400010630223012284F83C30802384F83120BD
:10E05000A4F84830A378002B51D1636B002B5FD11B
:10E0600000205CE0022384F83130032384F83C3044
:10E070002369A4F848300023C4F8E430E368266438
:10E080006364E7E763696364A369A4F8483063796C
:10E09000B3B194F8F2309BB994F8F43083B1022311
:10E0A00084F8503004212046FFF7B3FE0028D1D178
:10E0B000052384F8313004F1D403C4F8E430C9E70F
:10E0C0000323F6E7E3696364236AA4F848306379BD
:10E0D00083B194F8F2306BB994F8F43053B1022361
:10E0E00084F8503004212046FFF793FE0028B1D178
:10E0F0000623DEE70423DCE784F83130AAE72A466A
:10E10000D4F8E41004F15400FFF77DFE38B994F818
:10E11000301094F85400FFF778FE00289DD0F8BD29
:10E1200094F8310098479BE70820F8E710B503887A
:10E13000112B0C460AD0262B1FD0102B05D1C37BE8
:10E14000012B02D18388A1F8E83010BD002381F8AB
:10E15000F2308288B1F8E8309A42F6D10B79002B80
:10E16000F3D101212046FFF7DFFE0028EDD0A36B9D
:10E17000002BEAD0BDE810401847037A013B012B81
:10E18000E3D889780523013191FBF3F303EB830393
:10E19000C91AC9B2E6E738B5044690F85400FFF74B
:10E1A00036FE012384F8F230002384F8F43084F83A
:10E1B000503006212046FFF72CFE054638B9A178DD
:10E1C0002046FFF7B1FE10B1A36B03B19847284674
:10E1D00038BD75DF704776DF70477ADF70477BDFC9
:10E1E00070470000034B1A8882420CBF184600207B
:10E1F000704700BF5C330020024B9B6903B1184796
:10E20000704700BF4033002037B585B22846FFF77E
:10E21000E9FF034670B1164C017A227B91420BD282
:10E2200000F10A012846FFF7D4FFE8B1112801D018
:10E23000FFF7E2FF03B030BD237C0022027243B13E
:10E240003B212846FFF7C7FF30F0080301D0FFF756
:10E25000D3FF6369002BEDD000228DF80420ADF8C8
:10E26000065001A89847E5E71A7A01321A72E1E7E9
:10E270004033002013B50B46497A0F4C024669B96A
:10E28000D4E901101C7A002C18BF01465868FBF72E
:10E29000BCFF08B1FFF7B0FF02B010BD002119723A
:10E2A0006369002BF8D00121ADF806008DF8041049
:10E2B00001A89847F0E700BF4033002030B58388BD
:10E2C0000588B3F5FA7F24BF6FF4F9729C184A8869
:10E2D00038BF002495420CD84088904209D38A88E0
:10E2E000A24206D303F2F310904234BF0020012073
:10E2F00030BD0020FCE7000070B50388112B0146FB
:10E3000048D002D8102B1ED070BD122B52D0502BEB
:10E31000FAD12F4BC288DB899A42F5D1038A022BAE
:10E32000F2D186883046FFF75DFF05460028EBD026
:10E3300001F1120000F099F930BB6868FBF77DFF2E
:10E340000028E1D009E0C37B012BDDD14FF6FF703F
:10E35000FFF748FF054620B90420BDE87040FFF7ED
:10E360004BBF8E881B4A0680002303721368C5F8D2
:10E370000A300A30536843601031FFF79FFF144B97
:10E380006872DB89002BBFD129463046BDE870405A
:10E39000FFF770BF8088FFF725FF04460028B3D041
:10E3A0004068FBF74AFF08B1FFF726FF4FF6FF73FF
:10E3B0002380A9E786883046FFF714FF054600282A
:10E3C000A2D008310A30FFF779FF6872DCE700BF9E
:10E3D0004033002070330020F8B5064650B30546A0
:10E3E0000FCD154F3C460FC495E8070084E80700A1
:10E3F0003068124B3B60B8B1FFF7EFFEC8B9316827
:10E400000A681A604A685A600D480E4A4FF6FF7350
:10E4100003800D4B40F8043F0021FBF7EBFE002882
:10E4200014BF0320002004E01846FFF7D8FE0028A0
:10E43000EAD0F8BD0E20FCE7403300207033002006
:10E440005C33002009E20100783300200AB1FCF7B8
:10E45000E7BAFCF7EEBA73B50191019C06466CB1C0
:10E4600000252C46294601A8FCF7EDFA18B106EB69
:10E47000440301349D800135142DF3D130463460BE
:10E4800002B070BD2DE9F04303888488103B8DB045
:10E4900005460A2B1ED8DFE803F006431D1D1D1D8F
:10E4A0001D1D1D634800334EB3680CA8DB4340F8C4
:10E4B000303D56F8041FFCF7EFFA009901A8FFF76A
:10E4C000CAFF0027019B9F4207D3132C18D90420B1
:10E4D000FBF764FD0DB0BDE8F08301AB03EB470330
:10E4E0004FF00008B3F8049006EB0800494608F125
:10E4F0000408FCF79EFAB8F1780FF5D10137E1E78F
:10E5000021461D48FCF78CFA21461C48FCF788FA86
:10E51000EB7B012BDED021461948FCF781FAD9E7C5
:10E5200021461548FCF785FAD4E7057A15482D09E8
:10E53000032D94BF002201222146FFF787FF022D01
:10E5400094BF0022012221460F48FFF77FFF012DD3
:10E550000E4894BF002201222146FFF777FFB9E75A
:10E56000037A002BB6D1427A0648C2F3C002214694
:10E57000F3E700BF98330020A03300209C33002035
:10E58000A4330020B0330020AC330020A833002097
:10E590001328014602D80248FCF755BA00207047FC
:10E5A0009C33002010B50446FFF7F2FF38B1214636
:10E5B0000348FCF748FA002814BF0220012010BDD0
:10E5C000A033002010B5034B04465968FFF743FF02
:10E5D000204610BD9833002010B50446FFF7D8FF41
:10E5E000002814BF2046142010BD70B505461646FD
:10E5F0000AB90E2070BD002313600028F9D003680B
:10E60000002BF6D0C38813F003040FD10846FFF7A0
:10E61000E3FFC0B214280BD02B7983420AD9EB88D0
:10E620002A6800FB032030602046E3E70720E1E78B
:10E630000520DFE70420DDE7AADF7047ABDF704786
:10E64000002301380B70042806D8DFE800F0030629
:10E65000080A0C0011230B7070472123FBE73123BC
:10E66000F9E71223F7E72223F5E7007800F001002D
:10E6700070470B7803704B7843700220704738B5B1
:10E68000044608460D4600F0D7FE6560208038BD80
:10E69000F0B58B7891B005460C46164603B90123B8
:10E6A00003228DF80E3000212388ADF80C30684627
:10E6B00000F099FE6946607CFFF7C2FF0DF1010191
:10E6C000A07CFFF7BDFF9DF80230E27B62F3C3033D
:10E6D000227C62F30413227B62F30003227D002A72
:10E6E00014BF0222012262F3420300211C2209A866
:10E6F0008DF8023000F077FE637B13F0300F15D0F9
:10E7000002AF03220021384600F06DFE0DF1090131
:10E71000E07CFFF795FF11238DF808309DF80A3053
:10E720000E97012262F342038DF80A30637B8DF865
:10E7300024301422A37B8DF82530002104A800F09A
:10E7400052FE03AB0493A388ADF81C30A368CDF848
:10E7500014D01BB1E288ADF818200893A369002BF0
:10E7600032D001AF03220021384600F03CFEA369FD
:10E770001A88ADF82C205A88ADF82E205A680D97CB
:10E78000187B0A923946FFF75BFFA3690DF105017B
:10E79000587BFFF755FFA2699DF80630917A61F327
:10E7A000C3038DF80630D17A61F304138DF8063077
:10E7B000117A927B002A61F3000314BF0222012226
:10E7C00062F342038DF80630E36903B10C933346DC
:10E7D00004AA09A92846FFF72FFF11B0F0BD70B5B4
:10E7E0000C4688B0054616460021142203A800F006
:10E7F000FAFDA37803B901238DF80A3008AB22880B
:10E8000023F8182D01AA1146A0790393FFF718FFEA
:10E810000DF10501E079FFF713FF9DF80630E1786F
:10E82000049261F3C303217961F30413617961F305
:10E830000003217A002914BF0221012161F3420360
:10E840008DF806306389ADF81430A389ADF8163021
:10E85000E389ADF8183032462369079303A92846A7
:10E86000FFF7ECFE08B070BDA5DF7047B5DF70475D
:10E8700070B14FF0F7130360FB230371F723C380DC
:10E88000172303810023C1608372C3721846704747
:10E890000E20704730B1A1F11703E02B04D801809E
:10E8A000002070470E2070470720704737B58388D7
:10E8B0000C4683B90288112A64D00ED8102A3ED0A3
:10E8C000A37A43B1E1880020FFF7CEFF00287AD178
:10E8D0000123A072E37203B030BD3A2A58D0552A02
:10E8E000EED1C288C988A372172A38BF17228A427C
:10E8F00028BF0A4622811846FFF7B8FF60B1FCF72F
:10E90000ADFC394A394B3A499B1ADB081B040246D5
:10E9100043F00100FBF720F8E27A002AD0D1E36847
:10E92000002BCDD040F67721ADF802202289ADF83A
:10E930000010ADF80420694620469847C0E7C37B25
:10E94000012B04BF0B88CB80C98823898B42B7D2A7
:10E950000020FFF789FF10B90123E372B0E7112807
:10E9600002D10123A372ABE7FCF778FC1E4A1F4BD0
:10E9700020499B1ADB081B04024643F00100FAF70A
:10E98000EBFF9DE7F722CA8017220A818B72E4E72A
:10E990004289C988E5688A4228BF0A46172A38BFD3
:10E9A0001722228165B1E17A51B140F67721ADF8A5
:10E9B0000010ADF80230ADF8042069462046A847A3
:10E9C0000023E372CEE7112885D0FCF747FC064A06
:10E9D000064B08499B1ADB081B04024643F0010062
:10E9E000FAF7BAFF77E700BF0014020060140200D4
:10E9F000C00E02008F0E0200B0DF704766DF704766
:10EA000010B5034600214088FFF7F8FF024608B919
:10EA10001A7210BD112801D10122F9E75B68BDE827
:10EA20001040184760B159B10378DE2B0AD00B684B
:10EA30004360DE2303704FF6FF734380002070476E
:10EA40000E2070470820704728B10378DE2B04D1D0
:10EA50004180002070470E20704708207047F0B5B5
:10EA6000054685B00C46F1B1E8B10B78DE2B1AD122
:10EA700082884B889A4204D10B7A13B10846FFF77B
:10EA8000BFFF2B88112B32D0512B0ED0012B0AD176
:10EA90002B7A012B07D1A9886288914203D1237276
:10EAA0002046FFF7ADFF05B0F0BDAE886388B342E6
:10EAB000F9D1AF79022FF6D1AD7B2B1F022BF2D803
:10EAC00000211022684600F08EFC052D14BF4FF483
:10EAD000C0730023694630468DF80070ADF80430ED
