:020000022000DC
:1060000000000120B5620200DD620200DF620200D2
:10601000E1620200E3620200E562020000000000AB
:10602000000000000000000000000000E762020025
:10603000E962020000000000EB62020019B50200F4
:1060400079940200EF620200559D0200EF620200A7
:10605000EF620200EF6202000D980200EF620200A0
:10606000EF620200EF620200EF620200EF620200E4
:10607000EF620200EF620200EF620200EF620200D4
:10608000EF620200557E0200EF620200EF62020042
:10609000EF620200EF620200C5D40200EF6202006C
:1060A000EF620200EF620200EF620200EF620200A4
:1060B000EF620200EF62020000000000000000003A
:1060C000EF620200EF620200EF620200EF62020084
:1060D000EF620200EF620200EF62020000000000C7
:1060E00000000000000000000000000000000000B0
:1060F00000000000000000000000000000000000A0
:10610000000000000000000000000000000000008F
:10611000000000000000000000000000000000007F
:10612000000000000000000000000000000000006F
:10613000000000000000000000000000000000005F
:10614000000000000000000000000000000000004F
:10615000000000000000000000000000000000003F
:10616000000000000000000000000000000000002F
:10617000000000000000000000000000000000001F
:10618000000000000000000000000000000000000F
:1061900000000000000000000000000000000000FF
:1061A00000000000000000000000000000000000EF
:1061B00000000000000000000000000000000000DF
:1061C00000000000000000000000000000000000CF
:1061D00000000000000000000000000000000000BF
:1061E00000000000000000000000000000000000AF
:1061F000000000000000000000000000000000009F
:1062000010B5054C237833B9044B13B10448AFF3F0
:1062100000800123237010BD082D00200000000025
:1062200060F9020008B5034B1BB103490348AFF303
:10623000008008BD000000000C2D002060F9020065
:10624000154B002B08BF134B9D46A3F5803A002148
:106250008B460F461348144A121A07F038FB0F4BAF
:10626000002B00D098470E4B002B00D09847002001
:10627000002104000D000D48002802D00C48AFF3A7
:10628000008007F0D5FA2000290005F069F907F031
:10629000BBFA00BF00000800000001200000000061
:1062A00000000000082D00205040002000000000E9
:1062B000000000000649074A074B9B1A03DD043B18
:1062C000C858D050FBDC02F019FDFFF7B9FF000001
:1062D00070FA0200D82A0020082D0020FEE7FEE711
:1062E000FEE7FEE7FEE7FEE7FEE7FEE7FEE7FEE786
:1062F000704700BF00B583B0044B0093044A4023AD
:1063000000F036F803B05DF804FB00BF156302002F
:10631000282D002002B32DE9F843114B114E884679
:10632000144643F0010903270025224608EB050126
:10633000002005F043FA03461D444FF47A40E41A66
:1063400023B9337833B1C847013F06D001233370F6
:10635000002CEAD1BDE8F88370473770BDE8F883B8
:1063600000EB0200242D0020704700BF05F0DABAD0
:10637000F0B595B0002415460F4608461E4602F0BB
:106380004BFB384623460895082205A91A9D099615
:106390000D950A948DF82C400C9402F097FB9DF813
:1063A00014308DF81140DDE9061003F00302012AD4
:1063B000CDE9020127D0022A04D0384602F030FB92
:1063C00015B0F0BDBDF81650C3F3C2038DF8103000
:1063D000AD090826082D2C4628BF0824334622463E
:1063E0000EA9384602F072FB2D1B214608AB02AA0B
:1063F0000EA8264400F0ACFC002DEBD1384602F08C
:106400000FFB15B0F0BDBDF81460059DC6F38316F3
:10641000C3F3C204B2000EA9384608238DF8104019
:10642000C5F3952502F052FB08AB324628460EA96B
:10643000009302AB00F0E6FB384602F0F1FA15B02B
:10644000F0BD00BF08B5FFF791FF0421034800F03D
:106450008FFB034B01225A7108BD00BF58FA02009E
:10646000D82A0020F0B5324C85B004F5836001F0E5
:10647000E5FD04F2144001F0E1FDD4E9013703EA3F
:106480000702D01C04EB800114F8200010F0040077
:1064900044D003F1020C0E7806F00306012E654687
:1064A00035D0022E02F1030621D004EB860100282C
:1064B000F1D104EB82020133D26801923B4004EB3C
:1064C000830302F00302012ADE6829D0022A23D1C5
:1064D000BDF806309B090333360C05EB93051548D0
:1064E00001F0B8FD00B16560304605B0F0BD4B88E5
:1064F0000CEB931307EA0302D11C03F1020C14F80E
:106500002100654604EB810100F00400CFE70B8811
:10651000C3F383136344EDE70026E0E79D1CC8E75F
:10652000BDF80430C3F38313360C1D44D7E700BF16
:10653000382E00204C3200200B4B0C4810B50022A6
:10654000FF21C3F818249960C3E90022C3F814247A
:1065500083F8202402F01CFA044610B9044802F023
:1065600029FB204610BD00BF382E0020C4F90200D0
:1065700024EB020021B9124B03EBC0000068704706
:10658000104A0F49521AD20815D030B40E4D2B883C
:10659000834212D0002303E035F82340844205D023
:1065A00001339A42F8D1002030BC704701EBC300A0
:1065B000006830BC7047104670470846F8E700BFD7
:1065C000D8F9020058FA0200042D0020094B0139C5
:1065D00003EBC00003290BD8DFE801F00208060432
:1065E0000220704740797047007970470420704757
:1065F00000207047D8F902002DE9F04383B002ABC8
:10660000002203F8012DDFF8DC9007461846884683
:10661000D9F8084001F092FAD9E90132D9F80060BE
:10662000134401339B1B012B58D809F21C4501214F
:10663000284601F0EBFCFFF715FF0146284601F064
:10664000E5FCD9E90132D9F80010134401335B1A93
:10665000012BECD90A400332052302319DF80700D3
:1066600049F82230C9F8001001F08EFA00211C48C8
:1066700001F0AAFC80F31000731C234009EB830394
:1066800000043440033440EA1740D86019F824303D
:1066900067F3C50309F8243039F824306FF3891300
:1066A00029F8243059F8242068F39F221346012149
:1066B00061F301036FF3820349F8242009F82430C1
:1066C00099F820341BB906E000F00EF818B1D9E9AA
:1066D00000329A42F8D103B0BDE8F0833146B9E701
:1066E00054320020382E00202DE9F047934C00232F
:1066F00084B0C4F81834BFF34F8FD4E9015605EACB
:106700000602D31C04EB830114F82330580719D573
:1067100027680B7803F00303012B43D0022B03D12E
:106720004B88023505EB931506EA0502D4F81804E8
:10673000D31C04EB830128B9AF4239D914F82330B4
:106740005B07E6D404EB82026B1CD26801923340F3
:1067500004EB830302F00302DB680293022A05F1D3
:10676000020700F08D80012A26D0D4F810543DB1E4
:106770002B6828469B689847EB681D68002DF7D169
:106780006F48704B7049C01AC008000440F0020006
:10679000FFF732FFD4E90030C01A18BF012004B05F
:1067A000BDE8F0870B880235C3F383131D44BBE7B4
:1067B000676004B0BDE8F087BDF804206348C2F309
:1067C0008313062B28BF062363F389120233990033
:1067D000ADF8042002F0DEF880460028C5D002F0B3
:1067E0001BF90023082201A9404602F03BF9BDF83D
:1067F000043013F4707F00F09F806FF0010AAAEB61
:10680000050A082506EA070103312B46042204EB9A
:106810008101404602F026F9BDF8043007F1010974
:106820000AEB0902C3F3831393424F4605F10405B3
:10683000E8D8D4F81834002B68D1D4F8105465B1D6
:10684000EB685A7928464146002A5BD02B681B68C2
:106850009847EB681D68002DF2D1404602F0E0F841
:1068600004A8002300F80D3D01F068F9D4F81834AD
:106870000BB9C4F804909DF8030001F085F989E78D
:10688000BDF8063031484FEA93194D46502D28BFC8
:10689000502565F38F1305F10801ADF8063002F0BD
:1068A00079F8804600283FF460AF26EA070A0AF12B
:1068B000010A02F0B1F84FEA8A0A0023082201A96E
:1068C000404602F0CFF855452BD9EBB2BAF1000F94
:1068D00020D006EA0701A3EB0A03033104EB810190
:1068E000DDB252460823404602F0BCF82A460AF1BF
:1068F00008031749404602F0B5F809F1030907EB10
:10690000990996E71D68002D9AD1A6E7404602F046
:1069100087F83FE72A4608230D49404602F0A2F8CF
:10692000EBE706EA0701033104EB81012A4608235D
:10693000404602F097F8E0E7B9467AE7382E0020A3
:1069400000FA0200D8F9020030EB0200C4F902009C
:10695000442E00202DE9F04782B002AB002403F85A
:10696000014DDFF8ECA00746184691468846DAF854
:10697000084001F0E3F8DAE90132DAF80060134484
:1069800001339B1B022B5ED80AF21C4501212846CD
:1069900001F03CFBFFF766FD0146284601F036FB9F
:1069A000DAE90132DAF80010134401335B1A022BE2
:1069B000ECD90A400332033145239DF807004AF819
:1069C0002230CAF8001001F0DFF8B31C23400AEBB4
:1069D000830300211D48C3F80C9001F0F5FA80F301
:1069E0001000731C23400AEB83030004344003347B
:1069F00040EA1740D8601AF8243067F3C5030AF854
:106A000024303AF82430012161F389132AF8243024
:106A10005AF8242068F39F22134661F301036FF3B1
:106A200082034AF824200AF824309AF820341BB94B
:106A300006E0FFF759FE18B1DAE900329A42F8D1C0
:106A400002B0BDE8F0873146B3E700BF5432002002
:106A5000382E00202DE9F04F83B002AD002405F858
:106A6000014D3B4C8046284693469A468946A56888
:106A700001F064F8D4E90132276813440133DB1BC9
:106A8000032B63D804F21C460121304601F0BEFA04
:106A9000FFF7E8FC0146304601F0B8FAD4E90132CC
:106AA0002168134401335B1A032BEDD90A400332EA
:106AB000852344F8223004319DF80700216001F05D
:106AC00063F8BA1CFB1C2A402B4004EB820204EB47
:106AD000830300211F48C2F80CB0C3F80CA001F0DA
:106AE00073FA80F310007B1C2B4004EB830300043B
:106AF0003D40033540EA1840D86014F8253068F36B
:106B0000C50304F8253034F82530022262F38913D6
:106B100024F8253054F8252069F39F2213460121DB
:106B200061F301036FF3820344F8252004F8253054
:106B300094F820341BB906E0FFF7D6FD18B1D4E96C
:106B400000329A42F8D103B0BDE8F08F3946ADE784
:106B5000382E002054320020044BD3E900239A42FF
:106B600001D0FFF7C1BD0020704700BF382E0020C4
:106B700030B4184DD5F8104400215CB1E3681A799F
:106B80008A4204D116E0DB681A798A4212D01B6867
:106B9000002BF8D1C3681971D5F8103493B1DA68B5
:106BA000C36812681A60D5F81034DB68186030BC0E
:106BB0000846704701310A29DFD14FF0FF310846FE
:106BC00030BC7047C5F81004C2681360084630BC7A
:106BD000704700BF382E002038B5094BD3F8104459
:106BE000012583F820544CB1E3685D712368204689
:106BF0005B689847E3681C68002CF5D138BD00BF7E
:106C0000382E00202DE9F04784B01D460C9C00234F
:106C100094F80C802373EB8881460E461746002BB0
:106C200040D1297A05290ED06B7AA88873BB404BD6
:106C300053F821A00021FFF79DFC524603463D4931
:106C4000204601F07FFA062F09D8DFE807F0046A32
:106C50004249525D33004946204601F073FA2B7ACF
:106C6000052B05D06B7A5BB93349204601F06AFAEF
:106C7000204601F05BFA84F80C8004B0BDE8F08790
:106C80002E4A2F49204601F05DFAEDE7FFF79EFC02
:106C90002C4B2B4953F82020204601F053FA297A37
:106CA000A888C4E7254A00922749284A204601F0CF
:106CB00049FAB6E7D6E90410D6E900230390D6E9ED
:106CC00002070291CDE900074946204601F03AFA51
:106CD000C5E74946D6E90023204601F033FABEE76E
:106CE000B168D6E9002320460091494601F02AFA0E
:106CF000B5E7D6E90201D6E90023019100904946A3
:106D0000204601F01FFAAAE7D6E90371B068D6E978
:106D100000230291CDE900074946204601F012FA0E
:106D20009DE732684946204601F00CFA97E700BF1C
:106D3000BCEB0200ACEB0200B8EB0200A0EB0200DF
:106D4000A8EB020048EB020088EB020080EB020097
:106D5000082900D970472DE9F04F1D4690460023C1
:106D60002A7B2B7385B0B8F80630039207460E468F
:106D7000002B7BD198F80810052911D098F809301C
:106D8000B8F80400002B63D13C4B53F8214000219C
:106D9000FFF7F0FB224603463949284601F0D2F9B5
:106DA000DFF8FCB0DFF8FC90002405E03A5D013428
:106DB00001F0C8F9082C09D0A64249462846F5D862
:106DC0005946013401F0BEF9082CF5D12D49DFF800
:106DD000D8B0DFF8D890284601F0B4F900240CE0D0
:106DE00017F804A0BAF17E0F23D92E22494628466F
:106DF000013401F0A7F9082C08D0A642F0D8594672
:106E00002846013401F09EF9082CF6D198F8083094
:106E1000052B02D098F80930A3B91B49284601F088
:106E200091F9284601F082F9039B2B7305B0BDE868
:106E3000F08F06F021FD50445246437813F0970F2F
:106E4000D3D0D3E7114A1249284601F07BF9E4E791
:106E5000FFF7BCFB0F4B0E4953F82020284601F0EA
:106E600071F998F80810B8F804008DE7074A009205
:106E700009490A4A284601F065F97BE7BCEB0200A4
:106E8000ACEB020078EB0200B8EB0200A0EB0200D2
:106E9000A8EB020048EB020088EB020080EB020046
:106EA00074EB02006CEB0200B4EB02007CEB02001E
:106EB00070B51A4B1D789DB1194B1C682378C0B270
:106EC000984210D004F10802002306E014F83310B1
:106ED0008142164602F1080206D001339D42F5D1E7
:106EE00000231B78FFDE264602F086FC7378A3F1B0
:106EF0000103B3FA83F35B09834200D070BD094BF1
:106F0000D3E900231343F9D1074B0848196800223D
:106F10004908BDE8704000F02FBC00BFF4320020EB
:106F20003833002020330020F832002000330020C6
:106F30002DE9F04F9D4E337887B0002B00F0308163
:106F40009B4F9C4DDFF8788200244FF00109D7F861
:106F500000B01BF8340002F04FFC0BEBC4031BF82D
:106F600034B05B784FEA5B0C1BF0010E15F80C1087
:106F7000A3F10103B3FA83F314BF0A0901F00F026E
:106F80005B09042A00F2D080DFE812F09800D000FC
:106F9000690048000500834200F0E980BEF1000F5F
:106FA0000CBFF0230F233078194005F80C10A8B15E
:106FB000D7F800C09CF800305B4500F0E7800CF18A
:106FC0000802002304E01CF83310594500F0DF806C
:106FD00001338342964602F10802F4D14FF00003D8
:106FE0000DF117008DF817300023039300F0A6FD74
:106FF000ABF12002CBF1200329FA03F309FA02F2E4
:107000001A4309FA0BF103920291D8E90023DDE952
:10701000020122EA000023EA01017DE08342327886
:107020000CD0BEF1000F0CBFF0230F2303EA0103C5
:107030000CBF04214021194305F80C10013494427F
:1070400085DBD8E90023134306D05B4B5B48196806
:107050000022490800F090FB07B0BDE8F08F8342A2
:1070600076D1BEF1000F14BF0F23F02303EA010312
:10707000327814BF30210321194305F80C10002A7F
:10708000DFD0D7F800C09CF800305B4500F08B8063
:107090000CF108010023013393428E4601F10801EF
:1070A000CCD01CF833005845F5D1DEF80430002B65
:1070B000C4D05846012198473278BFE7834233D184
:1070C000BEF1000F0CBFF0230F2303EA01030CBF36
:1070D0000121102119434FF000030DF117008DF825
:1070E00017300023019305F80C1000F027FDABF1D9
:1070F000200309FA03F301930198CBF1200129FA47
:1071000001F1084309FA0BF101900091D8E900233D
:10711000DDE900011043194302460B469DF81700B4
:10712000C8E9002300F030FD327887E7834213BFBF
:107130000023202302221A46BEF1000F12BF0F20A7
:10714000F020134601400B4305F80C30327875E708
:10715000BEF1000F0CBFF0230F2303EA01030CBFA5
:1071600001211021194305F80C10327866E7BEF1B1
:10717000000F14BF0F23F02303EA010314BF3021D3
:107180000321194305F80C10327857E7E646DEF87C
:107190000430002B3FF422AF0021584698471DE7EA
:1071A000DFF81C804DE7E6467FE700BFF4320020A1
:1071B0003833002028330020F8320020003300202C
:1071C00020330020092A40D9F0B583B00E46054689
:1071D000144602F0C7F9002831D0204A2049214B3B
:1071E00015600E70102200211F481C6006F06FFB16
:1071F0001E4B00200021741EC3E90001E4B236B327
:1072000005EBC4041A4E083D032701E0A5421ED039
:107210009DF8063020788DF8047003F0FC036FF3BE
:1072200082038DF80630A3788DF80530324601A927
:1072300002F0A2F9083C0028E8D003B0F0BD02F04B
:107240004DF90028C9D003B0F0BD07207047094AA6
:107250000948002100F082FA03B0F0BD3833002065
:10726000F4320020F83200202833002020330020A0
:10727000B16E0200316F020028EC020070B5084DBB
:107280002B785BB1074E00243368012113F83400DA
:1072900002F050FA2B780134A342F5D8002070BDDB
:1072A000F43200203833002000B585B0002303906D
:1072B000194601AA44F20100CDE9013300F004F8B7
:1072C00005B05DF804FB00BF10B572B6FFF784FC93
:1072D000FFF742FC0028FBD1104B114C1149E41A76
:1072E000E408240444F00100FFF786F90E4B1B6804
:1072F000DB0700D500BE44F002000C49FFF77CF923
:10730000BFF34F8F0A490B4BCA6802F4E062134384
:10731000CB60BFF34F8F00BFFDE700BFD8F902007D
:1073200000FA020038EC0200F0ED00E044EC02004C
:1073300000ED00E00400FA0559B142B1531E1A40B5
:1073400005D1826001608380C260104670470920C9
:1073500070470E20704700BF10B403468468C068B1
:107360009A88001B82420AD3D8681C680240002019
:10737000A154DA680132DA605DF8044B70470420EA
:107380005DF8044B704700BF03468068DA6890429E
:107390000DD010B498689A881C6802400020A25C46
:1073A0000A709A6801329A605DF8044B70470520B4
:1073B000704700BFD0E90223D1E90201994208BF1A
:1073C00090422CBF01200020704700BF2DE9F04FF4
:1073D00087B0039000F0FCFC40B19B49D1E9002349
:1073E00012F1807443F10005C1E9004500210398C2
:1073F000964C00F009FD60B1236853B1944B2568A9
:107400001B7823B11DB12B7F002B40F02D81002371
:1074100023600121039800F0F7FC002840F0F3807E
:1074200005A98C4800F074FD18B38B4E884F894D28
:107430000378012B00F0C680C0F0CC80022B0ED167
:1074400030464FF0000801F0EDFB30B180F81C80B1
:10745000304601F0E7FB0028F8D101233B7005A975
:10746000284600F083FD05A9284600F051FD0028BC
:10747000DED1794E794FDFF8D09103E00D2855D059
:1074800000232360304601F0D3FB2368002800F07E
:10749000B48063B12368D0E90201D3E902239942A1
:1074A00008BF90423BD223681B7F002B7FD1304620
:1074B00001F0B8FB0546D5E902233846CDE90023A3
:1074C00000F0B4FCD9E90023DFF8948112EB000A44
:1074D00043F1000BD8E900239B4508BF924503D236
:1074E0001AF1807A4BF1000BDDE90001B0EB0A00E4
:1074F00061EB0B01012871F1000313DBDFF864A1DC
:10750000504559D8AA684FF496030021384600F038
:10751000D9FB0028B2D12368002B67D0256007B0C3
:10752000BDE8F08F0021384600F062FC484B1B7824
:10753000002BA5D02B7F002BA2D0384600F076FC84
:10754000D8E90023D9E900ABCDE900231AEB00020A
:107550004BF1000310461946DDE90023994208BFAC
:10756000904203D210F1807041F10001D5E902236D
:10757000994208BF904261D32B6903B92B77D5E9B3
:1075800005309847296900293FF47AAF2B7F002BFB
:107590003FF476AFD5E9022312EB010A43F1000B69
:1075A000C5E902AB2946304601F028FB68E72168AF
:1075B000304601F023FB7AE7384600F037FC00EB59
:1075C0000A02A0E741682368994213D0304601F0CF
:1075D00033FB44E743681A7F002A7FF440AF01225F
:1075E0001A774168304601F009FB38E7039800F04C
:1075F0003BFB93E70023236031E7002B8FD10398F7
:1076000000F036FB8BE71548DFF8548000F00EFCE5
:107610000D4BD3E90067D8E9002316EB000947F1C9
:10762000000A9A4508BF91454846514603D219F1D0
:1076300080704AF10001C8E90001F1E629463046B0
:1076400001F0DCFA1CE700BF40330020C03300200B
:1076500048330020A433002058EC0200E02A002028
:10766000B8330020FFFFB4001D4800F0DFFB1D4AC7
:107670001D4BD2E90067D3E9002316EB000847F160
:107680000009994508BF90454046494603D218F184
:10769000807049F10001D5E90223994208BF904268
:1076A00019D32B6903B92B77D5E905309847296998
:1076B00000293FF4ACAE2B7F002B3FF4A8AED5E9F8
:1076C0000223561843F10007C5E902672946074817
:1076D00001F094FA9BE62946044801F08FFA96E6F9
:1076E000E02A002040330020B833002058EC02008C
:1076F00010B5134B13491B68134882B058220193ED
:10770000082300F0B1FB044610B1204602B010BDC2
:107710000E4A0F4801A900F04FFA04460028F4D1A0
:1077200001210B4800F04AFB01231946094A084889
:1077300000F0A2FA084B012220461A7002B010BDD8
:1077400054EC02004C330020A4330020CD7302001F
:10775000E02A0020FFFF7F00483300204AB1A1F15A
:1077600001010368B1FA81F14909C3E9041200205B
:1077700070470720704700BF037F0BB100207047A0
:107780002DE9F048826182B004461F480D4600F0A2
:107790004DFB1E4B1E49D3E90023D1E9006712EBD4
:1077A000000B43F1000CBC4508BFB34503D21BF1ED
:1077B000807B4CF1000C1BEB050221694CF10003AE
:1077C000C4E9022379B901A9124800F065FB88B128
:1077D00000254460057001A90E4800F089FB68B9D6
:1077E00002B0BDE8F088256101A90A4800F054FB09
:1077F0000028EDD1042002B0BDE8F088024800F076
:1078000019FB2846ECE700BFE02A002040330020A7
:10781000B8330020A433002030B5002583B00446DF
:10782000057701A90B4800F037FB78B101234460CC
:10783000037001A9074800F05BFB08B903B030BD35
:10784000054800F0F7FA284603B030BD042003B025
:1078500030BD00BFA4330020E02A002030B50478FA
:10786000012C83B027D017D3022C13D1384B394DBC
:107870001A78C168AA5C01918DF80040002A3FD1B6
:1078800003F10C000122344902F0ACFC334B684692
:107890001B68984703B030BD31493248FFF774FD8B
:1078A000002843D002A8032300F8083D2B4B1B6897
:1078B000984703B030BD037ABBB143682A4D1978AD
:1078C0002846FFF749FD28B3244B01908DF800406E
:1078D0001B6868469847A968EB68AA885B1A9A42B1
:1078E00003D2224B01221A70D4E7194B194A1B7894
:1078F0001949D35C01224BB91D4802F073FCC9E75A
:10790000181D0122144902F005FFBFE7194802F0D3
:1079100001FFBFE7AA68EB689A42DCD002AB0F4ACE
:1079200003F8080D126818469047D4E70848094A3A
:107930000378D35C2BB9012209490C3002F0E0FB3B
:10794000A8E701220649043002F080FEA2E700BF4A
:10795000E82A0020D03F0020EC330020C433002070
:10796000F0330020DC330020C8330020D83300205F
:10797000F42A0020EC2A00202DE9F045324C89B091
:107980002260002955D00C4680468A882F48096815
:107990009A46FFF7D1FC10B109B0BDE8F085A28985
:1079A000A1682B48FFF7C8FC0028F5D1294D98F8AD
:1079B00010C0D8F81470284E0FCD6C460FC495E84F
:1079C0000F0098F811501CF1000C18BF4FF0010C7B
:1079D000002D84E80F00D8F80850D8F80040D8F8F7
:1079E0000430069714BF0E220022D8F80C708DF8D0
:1079F000152069463046194A8DF81CA08DF814C030
:107A0000CDE90275CDE9003401F0CAFC0028C3D1EC
:107A1000D8F80030124A01331070BDD0114A3378C3
:107A2000D35C53B906F10C0001220F4902F0DAFBD6
:107A3000B2E7072009B0BDE8F085301D01220A49F0
:107A400002F068FEA8E700BFC4330020C83300205E
:107A5000DC33002070EC0200E82A00205D78020090
:107A6000D8330020D03F0020EC33002070B5114CFB
:107A7000014611482678FFF787FC05460EB92846CF
:107A800070BD0E480E4A0378D35C0022227053B9B1
:107A90000C3001220B4902F0A5FB0028EFD0FFF7C4
:107AA00003FC284670BD01220649043002F032FE74
:107AB000F3E700BFD8330020C8330020E82A0020B5
:107AC000D03F0020EC33002070B501461548FFF789
:107AD00043FC044608B1204670BD134D134E2B786D
:107AE000F35CABB905F10C0002F070FB0028F2D199
:107AF0000F490C48FFF748FC0028ECD12B780C49C3
:107B0000F35C012243B90B48BDE8704002F0F8BABB
:107B1000281D02F0F1FDE9E70748BDE8704002F0DA
:107B200095BD00BFDC330020E82A0020D03F0020B4
:107B3000F0330020F42A0020EC2A002070B4EFF388
:107B4000108472B60D4B9A68AAB90D490D4E0125E5
:107B50009D60D1F8805035401D60C1F88060D1F83B
:107B600084505D604FF0FF33C1F88430027004B977
:107B700062B670BC704701230370F8E7C43F002071
:107B800000E100E0FC06FFBD094B9A687AB170B9CC
:107B900010B4EFF3108172B6064A1C6814605C687A
:107BA0005460986001B962B65DF8044B7047704745
:107BB000C43F002000E100E0F8B5234E4579234C96
:107BC000234F0346234847F82520801B04EBC506B6
:107BD000C0083679000486BB1A680D88C2F80855BB
:107BE00093F904208978002A1FDB02F1604202F534
:107BF00061424901C9B282F8001393F90420164F7B
:107C00001649012602F01F05520906FA05F547F844
:107C100022505A7904EBC20540F003002E7144F85B
:107C20003230FEF7E9FC0020F8BD0D4D02F00F02E6
:107C300049011544C9B22976DFE740F0020009493D
:107C4000FEF7DAFC0820F8BDD8F90200F433002072
:107C5000FC33002010FA020000E100E0BCEC02005E
:107C6000FCEC00E098EC0200036801221A60704707
:107C7000036801225A607047F0B404684FF48035FD
:107C80008D40C4F8085306688C00C6F8485304F5C4
:107C9000A0740668A4B20027375182B03659046830
:107CA000019601F5A87122F07F42019E44F821203F
:107CB0000268C2F8445313B10368C3F8045302B016
:107CC000F0BC70472DE9F04788464FF480370168D3
:107CD00007FA08F7C1F848730168C1F80873064647
:107CE00000684FEA88040119D0F80455D1F840051E
:107CF000C1F8405504F5A074A4B231684FF00009F2
:107D000041F8049082B0401B0959009120F07F4057
:107D100001289A4622F07F45009B0BD1264B4FF459
:107D2000806043F001039847336843F804901B597F
:107D30000193019B3368D3F80445C3F844732B1BAC
:107D400023F07F43012B08F5A87817D130681A4B30
:107D5000013540F8285043F001034FF48060984704
:107D60003268D2F804359C4222D1C2F84473336899
:107D70000020C3F8047302B0BDE8F087336843F80D
:107D800028503268D2F804156B1ACAF1FF1A013B69
:107D90000AF57F4A23F07F439A4509D3002BE4D1AB
:107DA000013542F828503268D2F804359942DCD0C7
:107DB0000D2002B0BDE8F08790EC020002680223BB
:107DC000C2F8443311B10268C2F80433704700BFEF
:107DD0000368D3F8040150B1002282B0C3F8042133
:107DE000D3F804310193019B012002B07047704722
:107DF0004FF48033026803FA01F1C2F848130368B4
:107E0000C3F80813704700BF890001F5A07189B25B
:107E10000368585840B100225A5082B05B58019311
:107E2000019B012002B07047704700BF0368D3F880
:107E30000405704790F9043005485A09403203F0B0
:107E40001F03012101FA03F340F82230704700BFFD
:107E500000E100E0024A034B10681B68184700BFAE
:107E6000F4330020FC33002099B110B4B2FBF3F4DA
:107E700003FB1424A4B244B9C0E9001484608281D5
:107E8000C38120465DF8044B704709205DF8044B20
:107E900070470E20704700BF30B482B050E8013FF9
:107EA0009DB2C48925448489A54228BF2D1B04891D
:107EB000A54202BFBFF32F8F002207E0C5EA0305EA
:107EC00040E80154002CE9D14FF001028DF8032065
:107ED0000193019B9DF803200B602AB10B88006879
:107EE000184402B030BC704702F0FF031846F8E7B0
:107EF0000A884B889A4201D00020704750E8012F31
:107F0000C2EA024240E80123002BF7D1012070476A
:107F100030B482B050E8023F1FFAA3F5C488A542EE
:107F200002BFBFF32F8F00220DE0C489254484894E
:107F3000A54228BF2D1BC3EA054540E80254002C8A
:107F4000E8D14FF001028DF803200193019B9DF8C9
:107F500003200B602AB14B880068184402B030BC83
:107F6000704702F0FF031846F8E700BF0A884B8805
:107F70009A4201D00020704750E8022FC2EA224204
:107F800040E80223002BF7D10120704701F01F02C7
:107F90004B09012100EB8300914000F01FB800BFA6
:107FA00001F01F0201234909934000EB8100D943EE
:107FB00000F020B84B0901F01F0150F82300C84021
:107FC00000F00100704700BF50E8002F0B4640E86A
:107FD000003C9CF0000FF7D11046704750E8003F7E
:107FE00043EA010240E8002C9CF0000FF6D1104655
:107FF000704700BF50E8003F03EA010240E8002C50
:108000009CF0000FF6D11046704700BF50E8003FCB
:1080100003EB010240E8002C9CF0000FF6D1104663
:10802000704700BF50E8003FA3EB010240E8002C7E
:108030009CF0000FF6D11046704700BF012350E8B6
:10804000002F42EA030C40E800C191F0000FF6D186
:1080500060467047002350E800CF0CEA030240E876
:10806000002191F0000FF6D160467047B8B130B4EE
:10807000D0E90112521A0468D2B2531E2160DBB259
:1080800042B101680A685C1E551C0D601370E3B2B2
:10809000FF2BF6D103680020187130BC70470E200A
:1080A000704700BFF0B583B002AB002503F8015D57
:1080B00004461846FFF742FDD4E900311A688A42A7
:1080C00010D9511E19602168A3680F6812F8015C6D
:1080D0000A79268AE068DB1BDBB29A4206FB0505BB
:1080E00038BF0B719DF80700FFF74EFD284603B01F
:1080F000F0BD00BF30B583B002AB002203F8012D04
:10810000054618460C46FFF719FD2A681368591CE6
:108110001160E9682A8A641AB4FBF2F41C709DF8B5
:108120000700FFF731FD03B030BD00BF826842B1E8
:1081300010B5044643690168006998470023A360AD
:1081400010BD70470EB400B582B0039929B102AAE0
:1081500004AB42F8043D00F0A9F802B05DF804EB6E
:1081600003B070472DE9F04F924683B051450F465A
:1081700005461E46DDE90CB2C0F092800B464FF07A
:108180000108B3FBFAF39A4508F10108F9D9B045A3
:1081900038BFB04612F00109A96802D1BBF1000F47
:1081A00054D1012402E0013E0AFB04F4012EFAD866
:1081B000B7FBF4F08245F7D93B4E02E0A968B7FB64
:1081C000F4F0335C2A680A2B04FB107702EB010EF3
:1081D00001F1010029D0A8608EF80030D5E9013105
:1081E000994202D32846FFF7A1FFB4FBFAF4002C12
:1081F000E4D1B9F1000F15D0BBF1000F12D0C34587
:1082000010D92024AB682A68591CA960D454D5E938
:1082100001329A420BF1FF3B14D2BBF1000F01D0A7
:10822000C345EFD103B0BDE8F08FA8604FF00D005B
:108230005054D5E9011088421DD2296801EB000E87
:108240000130C8E72846FFF771FFE6E7930722D41D
:108250002024C345A5D92B684A1CAA605C54D5E9E3
:10826000013199420BF1FF3B10D2BBF1000F98D0C6
:10827000C345F0D195E728460193FFF757FFAA6859
:108280002968019B501C01EB020EA4E72846FFF76A
:108290004DFFA968E9E7002E0CBF30242024D8E761
:1082A0004FF0010873E700BFD0EC0200002900F096
:1082B000B9822DE9F04F054687B091460C460E78FD
:1082C000DFF8C8A64FF00D0B13E0AB6828680A2E44
:1082D00003F1010200EB030100F04B82AA600E7073
:1082E000D5E901329A4280F01B812678002E00F0F9
:1082F0001E810134002E00F01A81252EE5D123467F
:10830000002713F8012B2D2A00F0E380302A00F01B
:10831000E4802B2A00F0D4802A2A00F00D81A2F1FB
:108320003006F1B2092903D97DE2A1F130060346F6
:10833000184606EB860110F8012BA2F13004092C37
:1083400002EB4101F1D92E2A00F002814FF0000822
:10835000013301E013F8012B02F0FB0168291C46F0
:10836000F8D0253A532AC0D801A353F822F000BF11
:108370005B870200EB820200EB820200EB820200CC
:10838000EB820200EB820200EB820200EB82020031
:10839000EB820200EB820200EB820200EB82020021
:1083A000EB820200EB820200EB820200EB82020011
:1083B000EB820200EB820200EB820200EB82020001
:1083C000EB820200EB820200EB820200EB820200F1
:1083D000EB820200EB820200EB820200EB820200E1
:1083E000EB820200EB820200EB820200EB820200D1
:1083F000EB820200EB820200EB820200EB820200C1
:10840000EB820200EB820200EB820200EB820200B0
:10841000EB820200EB820200EB820200EB820200A0
:10842000EB820200EB820200EB820200EB82020090
:10843000EB820200EB820200EB8202003F87020027
:10844000EB820200EB820200EB820200EB82020070
:10845000EB820200EB820200EB820200EB82020060
:10846000EB820200EB820200E3840200C586020078
:10847000EB820200EB820200EB820200EB82020040
:10848000C5860200EB820200EB820200EB82020052
:10849000EB820200EB820200EB8202002D860200DA
:1084A000EB820200EB820200A5850200EB82020053
:1084B00089850200EB820200EB8202003F87020006
:1084C00047F004071C46234613F8012B2D2A7FF49E
:1084D0001DAF47F001071C46F5E747F002071C46B1
:1084E000F1E7D9F800301A1DC9F800201E78AB68F2
:1084F0000A2E0CD12A68591CA96002F803B0D5E9EC
:108500000123934203D32846FFF710FEAB682A6885
:10851000591CA960D654D5E901329A42FFF4E5AE60
:108520002846FFF703FE2678002E7FF4E2AE2B7B71
:1085300023BB07B0BDE8F08FD9F80020111DC9F8A2
:108540000010166862782E2A04F102007FF4FEAE55
:108550005A78A2F13003092B00F2BD814FF00008D8
:1085600008EB880802EB480810F8012FA2F130034D
:10857000092BA8F13008F3D90346E9E6284607B0ED
:10858000BDE8F04FFFF7D2BDD9F800301A1DC9F889
:10859000002019680197434600960A222846FFF7F3
:1085A000E1FDA2E6D9F800301A1DC9F80020D3F881
:1085B0000080FB0700F1E880B8F1000F00F0A18116
:1085C000404605F0ADF90746BE4215D9A6B12021B7
:1085D00000E08EB1AA682B68501CA8609954D5E9B8
:1085E00001329A4206F1FF3604D328460391FFF781
:1085F0009DFD0399BE42ECD108F1FF3818F8016FD8
:10860000002E3FF472AEAB6828680A2E03F1010217
:1086100000EB030100F09081AA600E70D5E90132F1
:108620009A42EBD32846FFF781FDE7E7D9F800200F
:10863000131DC9F80030AB6829681768581C302230
:10864000A860CA54D5E90123934280F0E6802A68E5
:10865000581C7821A860D154D5E90123934280F0B9
:10866000D7800F2F03D93A4612090F2AFCD84FF0B2
:1086700080560DE0AA6081F80080D5E901329A4267
:1086800002D32846FFF752FD36093FF42EAEAB6801
:10869000B7FBF6F21AF802802868B8F10A0F06FB59
:1086A000127700EB030103F10102E3D1AA6000F8A5
:1086B00003B0D5E901329A4280F049812B689918BC
:1086C0000132D7E7D9F800301A1DC9F8002019681F
:1086D00081EAE173A3EBE173092B40F30E81AA4811
:1086E0000122A0FB03C3DB08092B02F10102F8DC25
:1086F0004245134638BF4346039307F00203002E5A
:1087000040F09580002B00F0B780B8F1000F00F02A
:10871000F680F80740F1B0800029C0F2FF807A07A8
:1087200000F1C88007F00303022B00F0A780CDE919
:10873000006743460A222846FFF714FDD5E5D9F81D
:1087400000301A1DC9F800201968019743460096A9
:1087500010222846FFF706FDC7E5AB682A68581CBB
:108760002521A860D154D5E901329A42FFF4BDAD6C
:10877000D6E6AA6000F803B0D5E901329A423FD2AA
:10878000296811440132A9E54146A1EB080311F81B
:10879000017BD7B1AB68D5F800C00A2F03F1010205
:1087A0000CEB030000F0AF80AA600770D5E901323E
:1087B0009A42EAD328460391FFF7B8FC0399A1EB4C
:1087C000080311F8017B002FE4D19E427FF68DADA6
:1087D000202702E0002E3FF488ADA9682A68481CD3
:1087E000A8605754D5E90121914206F1FF3604D320
:1087F00028460393FFF79AFC039BB342EAD174E542
:108800002846FFF793FCAB6829685A1C194465E5B4
:108810002846FFF78BFCAB6823E72846FFF786FC6A
:10882000AB6814E770471846002623468BE50029FD
:1088300020DB7A071ED41BB1B8F1000F3FF46CAFF8
:10884000F8073FF569AFBEB1039BB342BFF464AF15
:108850002023AA68501CA86028688354D5E9010227
:10886000824206F1FF3640D236B1039AB242F0D1CD
:10887000164651E7013EDEE700264DE7B8F1000F4E
:108880007FF455AF002E6AD0039BB342BFF44FAFC5
:108890003023AA68501CA86028688354D5E90102D7
:1088A000824206F1FF3618D2002E58D0039AB24207
:1088B000EFD13CE7AA68531CAB602B682B2098547F
:1088C000D5E901329A42FFF42DAF28460491FFF713
:1088D0002DFC049926E7034638E52846CDE9041324
:1088E000FFF724FCDDE90413DEE72846CDE9041395
:1088F000FFF71CFCDDE90413B6E70122F8E6464663
:108900000AE7474660E6AA600CF803B0D5E90132F1
:108910009A4226D22B689818013245E7AA68531C60
:10892000AB602B682D209854D5E901329A42C1F1F1
:108930000001FFF4F7AEC8E7AA6000F803B0D5E97C
:1089400001329A4217D229681144013264E628465E
:10895000FFF7ECFBA9682B684A1C19448AE600263D
:10896000E5E628460391FFF7E1FBA8682B68039929
:10897000421C184418E72846FFF7D8FBAB68296863
:108980005A1C194448E600BFCDCCCCCCD0EC020038
:10899000FFF76CBB2DE9F041058ACE1C043D2E4447
:1089A0000746B6FBF5F6FFF77DFB78B3F6B24FF45A
:1089B0008073013E0446C5800760838027D08046CF
:1089C000002509E06379AE4203F101036371C8F841
:1089D0000000076080461AD03846FFF763FB013578
:1089E0000028EFD16679721E14D0234601308242EE
:1089F0001B68FBD11F684EB1002523682146013555
:108A000038461C46FFF776FBAE42F6D100242046DE
:108A1000BDE8F0812768EFE704300121FFF7F6BADF
:108A2000F8B5012104460430FFF7FCFAC0B200B1EA
:108A3000F8BD6679721E12D02346013082421B684F
:108A4000FBD11F68002EF3D0002523682146013595
:108A500038461C46FFF74EFBAE42F6D1F8BD2768FC
:108A6000F2E700BF2DE9F843C788467907FB06F611
:108A7000043E02EB030C0446664503F10400154670
:108A80008846B0FBF7F238BFF51A07FB120012B1A7
:108A9000013A2468FCD13E1AAE4228BF2E469DB151
:108AA0004FF000090430AD1B2044324608EB0901A9
:108AB00004F002FFAF42B14424683E464FF000008C
:108AC00028BF2E46002DEDD1BDE8F8832DE9F843EF
:108AD000C7884679154607FB06F6043E05EB030CEE
:108AE0001A1D664504468846B2FBF7F038BFF51AF2
:108AF00007FB102110B101382468FCD17E1AAE4268
:108B000028BF2E469DB14FF0000904312144AD1B12
:108B1000324608EB090004F0CFFEAF42B1442468AE
:108B20003E464FF0000128BF2E46002DEDD1BDE896
:108B3000F88300BF41DF7047064A074B10B5002499
:108B400014701C60BFF35F8F0449054800F040F8C3
:108B5000204610BD083400200C340020E0EC020058
:108B60000034002000B583B002A8002300F8013DC6
:108B7000FEF7E4FFF1EE103A23F09F03E1EE103A26
:108B8000BFF35F8F0A4B4022C3F884219DF8070092
:108B9000FEF7FAFF04F090FC28B920BF40BF20BFC9
:108BA00003B05DF804FBFFF7C5FF03B05DF804FBFD
:108BB00000E100E0826800239360826813618268AC
:108BC00053618268D3608268536082681360704723
:108BD00001600B6843604A68934204BF002343600E
:108BE000704700BF436843B1026891680B4443601B
:108BF0005268934204BF00234360704770B54468D5
:108C0000064620680D4618B908E02468206828B197
:108C1000B368294698470028F7D120682860256066
:108C200070BD00BF4368186808B102681A607047D9
:108C300043681868704700BF4068036873B18B428F
:108C400003D107E0814204D0034618680028F9D117
:108C5000704718460B68036001207047184670473C
:108C600030B4184DA5F59472AB1ADB1003EBD37337
:108C70005B1002EBC30152F83330984228BF0C4618
:108C800005D311E052F8333098420CD221468B1AAA
:108C9000DB1003EBD3735B108A4202EBC304F1D306
:108CA000094830BC70470D46984204D904F10802C7
:108CB000AA42D9D3F4E76068034B002808BF1846DE
:108CC000EFE700BF40EE020004ED020070B5161E93
:108CD00007DD0C468D1914F8010BFEF7F5FEA542D1
:108CE000F9D1304670BD00BF10B50C462046FEF7E6
:108CF000BDFE0528FAD0012010BD00BF30B4904B56
:108D00001B78062B20D08F4B1B68062B00F085802C
:108D10008D4AD2F8883043F47003C2F88830BFF32C
:108D20004F8FBFF36F8F4FF01023D3F80022002A2C
:108D3000C0F28681D3F80432002BC0F28181834BCC
:108D4000834A1A6030BC7047824B1B681D07DAD11A
:108D5000814B1B6803F0F002302A00F09E8003F084
:108D6000E003402B00F099807B4B1B6803F0F0037D
:108D7000302B00F0B980784B1B6803F0F002302AEA
:108D800056D003F0E003402B52D0734B1B6803F026
:108D9000F003302B00F0B6806F4B1B6803F0F0023D
:108DA000302A66D003F0E003402B62D06A4B1B6888
:108DB00003F0F003302B00F0B580674B1B6803F025
:108DC000F003302B79D0644B1B6803F0F003502B79
:108DD00000F0E480604B1B6803F0F002302A37D0CB
:108DE00003F0E003402B33D05B4B1B6803F0F00231
:108DF000302A03D003F0E003402B84D14FF08043AE
:108E0000D3F80024D20744BF6FF00102C3F8002456
:108E10004C4B1B68062B7FF47BAF504B1B68062B1B
:108E20007FF476AF4E4A136843F4806313606FE7B4
:108E30004C4B434A1B6812784B49C3F34233062A12
:108E40000B6048D1434B1B6819077FF45CAF9CE76C
:108E5000464A3B4B12681B78454902F04F02062BED
:108E60000A607FF450AF3B4B1B6819077FF44BAF90
:108E7000BAE74FF080430022C3F80C21C3F8102159
:108E8000C3F838252E4B1B78062B7FF43CAF314BB3
:108E90001B681B077FF437AF88E7364B284A1B68EF
:108EA00012783549C3F30423062A0B60EAD1294B13
:108EB0001B681C077FF427AF56E7304C204A304927
:108EC00012783048304B0525256001250D600024BF
:108ED0003F2104601960062A7FF415AF1D4B1B6803
:108EE0001C077FF410AF6EE7154B284A1B78284902
:108EF0001160062B7FF407AF164B1B6818077FF431
:108F000002AF38E723490E4BCA681B7822F0807203
:108F1000062BCA607FF4F7AE0E4B1B681A077FF46E
:108F2000F2AE39E7064B1C4A1B780321062B116071
:108F30007FF4E9AE074B1B681D077FF4E4AE3CE706
:108F4000E00F00F03001001000ED00E0FC2A0020EE
:108F50000090D003E40F00F0E80F00F0340100109F
:108F60003C170040440200103C050040580200102D
:108F7000E40E00402403001040350140105600402C
:108F800088560040185600401456004074C00740F0
:108F90000DF0ADBAF0ED00E0A00500404FF08053B9
:108FA000404AD3F80414C2F82015D3F80814C2F8C4
:108FB0002415D3F80C14C2F82815D3F81014C2F8ED
:108FC0002C15D3F81414C2F83015D3F81814C2F8BD
:108FD0003415D3F81C14C2F84015D3F82014C2F885
:108FE0004415D3F82414C2F84815D3F82814C2F84D
:108FF0004C15D3F82C14C2F85015D3F83014C2F81D
:109000005415D3F83414C2F86015D3F83814C2F8E4
:109010006415D3F83C14C2F86815D3F840142248FC
:10902000C2F86C15D3F844140378C2F87015062BF7
:109030007FF469AE1D4B1B6818077FF464AEC9E668
:109040001B4B0122C3F80425D3F80024002AFBD0CF
:109050004FF0102315221649C3F80022D1F800342E
:10906000002BFBD04FF010221521114BC2F8041237
:10907000D3F80024002AFBD000220D49C3F80425B0
:10908000D1F80034002BFBD0BFF34F8F09490A4BB6
:10909000CA6802F4E0621343CB60BFF34F8F00BF96
:1090A000FDE700BF00C00040E00F00F0E40F00F05B
:1090B00000E0014000ED00E00400FA05054A4FF031
:1090C000A043105CD3F8043523FA00F0C04300F04D
:1090D0000100704730F20200044B195C4FF0A042CF
:1090E00001238B40C2F80C35704700BF30F20200FC
:1090F000044B195C4FF0A04201238B40C2F80835A5
:10910000704700BF30F202004FF0A04310B44FF49C
:1091100080204FF400344FF400214FF48012C3F844
:109120000845C3F80805C3F80815C3F808255DF815
:10913000044B70474FF0A04310B44FF480204FF41D
:1091400000344FF400214FF48012C3F80C45C3F8EB
:109150000C05C3F80C15C3F80C255DF8044B7047DB
:10916000074B4FF0A041185CD1F804350122824032
:1091700022EA03001340C1F80805C1F80C35704716
:1091800030F20200054A4FF0A043105CD3F81035CE
:1091900023FA00F0C04300F0010070472CF20200F7
:1091A0000D2809D00E2809D00F2809D010280CBF8F
:1091B00003204FF0FF3070470020704701207047B8
:1091C00002207047014B185C704700BF2CF2020070
:1091D000C20730B41AD54FF0A0430322C3F8442786
:1091E0004FF40035C3F848274FF48024C3F84C27C8
:1091F0004FF40021C3F850274FF48012C3F80855EC
:10920000C3F80845C3F80815C3F8082583070AD52D
:109210004FF0A0430C22C3F83427C3F83827C3F813
:109220003C27C3F8402730BC704700BF10B570B171
:1092300001280BD10D4C2369A0703BB1D3E9002369
:109240000120226198472369002BF7D110BD074CFC
:10925000A36801226270002BF8D0D3E9002300201C
:10926000A2609847A368002BF7D1EFE710340020E5
:1092700070B910B5074CA368012262703BB1D3E905
:1092800000230020A2609847A368002BF7D110BDEF
:10929000704700BF1034002030B5012883B01CD0C7
:1092A00015D3032811D100F0C9F802A800231F4CE0
:1092B00000F8013DFEF742FCE368013BE360E5682E
:1092C00065B39DF80700FEF75FFC03B030BD184B97
:1092D0000122C3F8802003B030BD02A80023134C44
:1092E00000F8013DFEF72AFC237853B1E3689DF8AE
:1092F000070001330122E360A270FEF745FC03B0D2
:1093000030BD0C486360A3602361E36000F088F81F
:1093100004F0D2F830B101232370E7E700F0A0F8A1
:10932000A570CEE700F08AF8F5E700BF1034002002
:1093300000E100E02D92020030B585B00478456868
:109340008DF80040D0E90240064A074B039053F8DD
:10935000213001958DF8084052F821106846984751
:1093600005B030BD243400202834002030B585B04D
:10937000047845688DF80040D0E90240064A074B62
:10938000039053F8213001958DF8084052F82110D0
:109390006846984705B030BD2434002028340020AA
:1093A000F0B51A4B06781A4D0C6991F81DE045F896
:1093B00026400746174803F806E040F826200C46EA
:1093C00094460FCC89B06D460FC594E80F0085E830
:1093D0000F000496BEF1000F0BD0BCF1000F0E4A37
:1093E000694607F1040008BF002201F04BF809B0FC
:1093F000F0BDBCF1000F094A694607F10C0008BF37
:10940000002200F0B3FD09B0F0BD00BFD03F002046
:109410002434002028340020399302006D93020088
:10942000054A13792BB90121106053711846117147
:1094300070478520704700BF2C340020074B1A6806
:10944000D20704D4C021012283F800131A604FF020
:1094500080430122C3F81825704700BF00E100E0F7
:10946000044B01221A604FF08042D2F81834DB031B
:10947000FBD470470C00004010B5154B1A6882B041
:109480007AB10021134A19601B68507900934FF09C
:1094900080410123009CC1F8083310B91168537151
:1094A00088470D4B1A6882B100221A601B6801932D
:1094B0004FF080420221074B0198C2F808131B6845
:1094C000012002B0BDE81040184702B010BD00BF37
:1094D000000100402C3400200401004030B51D4C38
:1094E00094F8585083B095BB4FF0FF3329460422BF
:1094F00004F15400C4E90033C4E90233C4E904337D
:10950000C4E90633C4E90833C4E90A33C4E90C33B7
:10951000C4E90E33C4E91033C4E91233236504F0FF
:10952000D6F90D4A0D4B0E491D60C02082F8060386
:10953000402010601B68019301984FF00043012206
:10954000284684F85820C1F8043303B030BD082001
:1095500003B030BD3434002000E100E07C61004005
:1095600000600040034B93F85800003018BF012002
:10957000704700BF34340020F0B56C4B1C1894F9D0
:109580003050002D68DA8E78C6F340069646002EDD
:109590005CD11D6A013500F0B58009240C2553F813
:1095A000247001375BD004F1010C53F82C700137A3
:1095B00000F0B380A71CAF4246D253F827200132F7
:1095C00000F0AD8004F1030CAC453DD253F82C7093
:1095D000013700F0A28004F1040CAC4534D253F8FA
:1095E0002C70013700F0998004F1050CAC452BD2AA
:1095F00053F82C70013700F0908004F1060CAC4554
:1096000022D253F82C70013700F0878004F1070C48
:10961000AC4519D253F82C7001377ED004F1080CF8
:10962000AC4511D253F82C70013776D004F1090CF7
:10963000AC4509D253F82C7001376ED00A34AC42D5
:1096400002D2DC6A013409D00420F0BD1D68013566
:1096500067D001240825A2E70820F0BD0B241F18BD
:1096600065B243F824E087F83050002E51D08A7854
:10967000540714D4D6073BD44C784FF0A04600F5DD
:10968000E072A40046F82240294EC40800F0070CFE
:10969000375D012202FA0CF23A4332558A780C788F
:1096A00012F0020209D1083D2B44104693F85020D5
:1096B00042EA841483F85040F0BDAB0003F18043CC
:1096C00003F5C0430202D3F8101521F4473121F409
:1096D0004071C3F810152404D3F8101504F4403475
:1096E00002F4F85222430A43C3F810250020F0BDCB
:1096F000820002F1A042D2F8004724F00204C2F82E
:109700000047C1E7082684F83060C3F820E03546FA
:1097100034461C4484F84800A9E764469FE73C4669
:109720009DE700251A6084F83050A0E7343400200B
:109730008834002070B42E4D2E1883B096F9303046
:10974000072B1CDD2B4493F848309B09032B41D099
:10975000012B14BF4FF440314FF40031800000F171
:10976000A040D0F8002722F44032C0F80027D0F8FB
:1097700000370B43C0F8003703B070BC7047DAB253
:10978000072AF9D8980000F1804000F5C04003F1A5
:109790004002D0F81045920092B244F0010402F168
:1097A0008042C0F8104502F5C04200200190019CA3
:1097B00010600029E0D096F9302055F82220002AC8
:1097C000DAD001220B4902FA03F3C1F8043303B0E3
:1097D00070BC70474FF0A043D3F81035C34013F06E
:1097E000010F0CBF4FF400314FF44031B6E700BF1A
:1097F00034340020006000404FF0A043D3F810350F
:1098000023FA00F000F00100704700BF2DE9F0419D
:1098100086B00023A14A01931668012E00F05481FE
:109820001E469F4B1A68012A00F05D819D4B1A6805
:10983000012A00F06A819C4B1A68012A00F07781A6
:109840009A4B1A68012A00F08481994B1A68012A00
:1098500000F09181974B1A68012A00F09E81964B87
:109860001A68012A0CD0954B1B68012B00F0A581CA
:1098700016F0FF0F15D1002E30DB06B0BDE8F081E9
:109880008F4AD2F804231706EDD500221A601A6811
:1098900004926033049A1B68012B46F0800600F0A6
:1098A0008C81884F00240125A30003F180433542B9
:1098B00003F5C0434FEA45050BD0D3F8100557F820
:1098C0002420D3F81015C0F30420C1F3014102B1E4
:1098D00090470134082CE7D1002ECEDA00224FF059
:1098E000FF33CDE90223774C012602AF94F95030C3
:1098F0005D1C2CD0DBB223F0C00006AA4FEAD00CCE
:1099000002EB0C0E03F007021EF80C1C06FA02F222
:1099100011421CD02518990995F9303054F823309C
:10992000002B00F09881032900F098814FEA800C09
:109930000CF1A04C1EF8145CDCF800E71540CEF3E7
:10994000014E40F05C81BEF1030F00F0DE81002586
:1099500094F95130581C2DD0DBB223F0C00006AA78
:109960004FEAD00802EB080E03F007011EF80C2C9A
:1099700006FA01FC12EA0C0F1CD02218990992F980
:10998000303054F82330002B00F05B81032900F0C5
:109990005B81820002F1A0421EF8148CD2F800E72D
:1099A00018EA0C0FCEF3014E40F03681BEF1030FE2
:1099B00000F0A68194F95230591C2DD0DBB223F06F
:1099C000C00006AA4FEAD00802EB080E03F0070118
:1099D0001EF80C2C06FA01FC12EA0C0F1CD02218FF
:1099E000990992F9303054F82330002B00F03C8173
:1099F000032900F03C81820002F1A0421EF8148C81
:109A0000D2F800E718EA0C0FCEF3014E40F0E380E5
:109A1000BEF1030F00F06E8194F953305A1C2DD023
:109A2000DBB223F0C00006AA4FEAD00802EB080E12
:109A300003F007011EF80C2C06FA01FC12EA0C0FC9
:109A40001CD02218990992F9303054F82330002B99
:109A500000F0ED80032900F0ED80820002F1A042C9
:109A60001EF8148CD2F800E718EA0C0FCEF3014E62
:109A700040F0BC80BEF1030F00F00081002D3FF4E8
:109A8000FCAE4FF0A043019AD3F8103593423FF457
:109A9000F4AE029A0193039228E700BF00610040F0
:109AA00004610040086100400C610040106100400A
:109AB00014610040186100401C6100407C6100405E
:109AC00000600040343400209A49D1F8041311F0AA
:109AD000010170D0136013680493049B964B1A68BD
:109AE000012A7FF4A3AE934AD2F8042397077FF5A7
:109AF0009DAE00221A601B680493049B8F4B1A686A
:109B0000012A46F002067FF496AE8A4AD2F8042370
:109B100055077FF590AE00221A601B680493049BE2
:109B2000874B1A68012A46F004067FF489AE814A01
:109B3000D2F8042314077FF583AE00221A601B6855
:109B40000493049B7F4B1A68012A46F008067FF4B1
:109B50007CAE784AD2F80423D0067FF576AE002298
:109B60001A601B680493049B774B1A68012A46F01D
:109B700010067FF46FAE6F4AD2F8042391067FF58A
:109B800069AE00221A601B680493049B6F4B1A682D
:109B9000012A46F020067FF462AE664AD2F804231A
:109BA00052067FF55CAE00221A601B680493049B8A
:109BB00046F0400653E60E4633E6654B00221A6037
:109BC0001B6805934FF0A043059AD3F81035019315
:109BD00046F000464CE6BEF1020F7FF41DAF0329AC
:109BE00063D0002B3FF418AF984715E7BEF1020F82
:109BF0007FF444AF032969D0002B54D13EE7BEF176
:109C0000020F7FF4A4AE032900F091800025002B01
:109C10003FF49EAE98479BE6BEF1020F7FF4CAAEBA
:109C2000032956D0002B3FF4C5AE9847C2E603295E
:109C30007FF424AF17F8082042EA0C0207F8082046
:109C40000BE703297FF4B6AE17F8082042EA0C02AE
:109C500007F808209DE603297FF479AE17F80C5029
:109C6000154307F80C5061E603297FF4D5AE17F8C9
:109C7000082042EA0C0207F80820BCE60329BBD101
:109C80004FF4003ED2F800C72CF4403CC2F800C7A5
:109C9000D2F800C701354CEA0E0CEDB2C2F800C78D
:109CA000002B3FF4EEAE9847E8E64FF4403ED2F882
:109CB00000C72CF4403CC2F800C7D2F800C70135F9
:109CC0004CEA0E0CEDB2C2F800C78AE74FF4403EF2
:109CD000D8E74FF4403ED2F800C72CF4403CC2F81D
:109CE00000C7D2F800C701354CEA0E0CEDB2C2F83D
:109CF00000C797E703297FF474AF4FF4003ED6E71F
:109D000003298FD14FF4003EE5E703297FF47FAFAD
:109D10004FF40035DCF8002722F44032CCF800275D
:109D2000DCF800272A43CCF8002701256FE74FF421
:109D30004035EFE7006000400461004008610040EA
:109D40000C61004010610040146100401861004047
:109D50007C610040014B1B68184700BF9034002015
:109D6000104B984201D00020704730B583B002A854
:109D7000002300F8013D0D46FDF7E0FE0A4B1C797B
:109D800034B19DF80700FDF7FFFE112003B030BD90
:109D900001229DF807001D601A71FDF7F5FE2046AF
:109DA000F4E700BF002000409034002030B56D4A39
:109DB000D2F8043399058BB068D5D2F82431002B42
:109DC00064D00023C2F82431D2F8243101934FF437
:109DD0000171654B0198C2F8081393F8291009B96D
:109DE000012151605F4902228DF81820D1F88024AA
:109DF000C1F880249869D96809920022CDE907103A
:109E0000C3E90622D3E9001406A8A047554AD2F8B0
:109E10001C31CBB1544B5869196A88426BD85149EF
:109E20000022C1F81C21D1F81C1102910299596934
:109E300051B1586999688DF8182008905A610791B6
:109E400006A8D3E900129047464AD2F84431DBB164
:109E50000021454BC2F84411D2F8440193F829106F
:109E60000090009809B1012111609A6962B1002245
:109E7000586AD9689A610122CDE907108DF8182037
:109E800006A8D3E9001290470BB030BD354AD2F88E
:109E900004335B07BAD5D2F80831002BB6D0324B69
:109EA000996900293CD00021C2F80811D2F80811A4
:109EB00004910499D868596AD2F8182542545A6A0C
:109EC000996901325A625A6A8A429FD1DA691968DD
:109ED000002A2ED0D8685D6A1C699A61079000221A
:109EE0000120DC60DA615A628DF8180008955B6821
:109EF00006A898478AE793F8281001F0FF00002988
:109F00008DD1C2F81C01D2F81C11039103999C68F1
:109F1000186A196A205C01311962C2F81C0593E7BE
:109F2000C2F80811D2F8080105900598D2F8182552
:109F3000C9E793F8292012B90A4A01205060094A5A
:109F40004FF40170C2F80803586ADA6808900024D8
:109F5000012007928DF818005A689C6106A8904766
:109F600054E700BF00200040983400202DE9F04164
:109F70005E4F06792C2505FB067582B095F82A30D0
:109F8000002B40F087800D460446594900689046F2
:109F9000FFF7E6FE002879D12B68591C0CD001226E
:109FA0004FF0A04102FA03F3C1F808352B6803F51E
:109FB000E073032241F823206B685A1C06D003F596
:109FC000E0734FF0A042002142F823102368AA69F1
:109FD000C3F82425297D6B7D22680B43C2F86C35BC
:109FE000D5E900122368C3F81425C3F80C152B7D9E
:109FF000012B53D02C2303FB06F3FA18C2F804807C
:10A000002A69FA50B8F1000F2DD022682B7F394D04
:10A010000021C2F81C11D2F81C2100922268DDF840
:10A0200000C0C2F84411D2F844112268019101998C
:10A03000C2F804532168090B4AB25B01002ADBB263
:10A040004EDB02F1604202F5614282F80033236880
:10A05000294D1B0B5AB2520903F01F03012101FACB
:10A0600003F345F822302C23246803FB06730022F7
:10A0700004250121C4F8005583F82A10C3E90622FB
:10A0800083F829205A6102B0BDE8F081112002B0A6
:10A09000BDE8F081082002B0BDE8F081AB68591C32
:10A0A00006D003F5E0734FF0A042002142F82310E0
:10A0B000EB685A1C0DD001224FF0A04102FA03F3C5
:10A0C000C1F80835EB6803F5E073032241F823205B
:10A0D000EB682268A968C2F80835C2F8101589E74C
:10A0E000064A01F00F010A441376B0E798340020C5
:10A0F000AD9D02008000020000E100E0FCEC00E009
:10A10000F0B5314E05792C2303FB056385B05C69FE
:10A11000002C53D15A6199601C6283F82840026870
:10A12000C2F81C41D2F81C11026802910121029F61
:10A1300091600268D3F808C0C2F81C41D2F81C1123
:10A1400001910199D3F820E0196A5F681CF80EE0CC
:10A1500001311962C2F81CE517B1204605B0F0BD07
:10A160005C691A6A0168944203D819E093F82820C0
:10A170003ABBD1F81C21002AF8D0C1F81C71D1F8E3
:10A180001C210392039AD3F820E01A6A1CF80EE00F
:10A1900001321A62C1F81CE51A6A9442E9D80168D2
:10A1A000D1F81C31002BFBD00123CB6000202C23E5
:10A1B00003FB056500236B6105B0F0BD112005B000
:10A1C000F0BD0F20F3E700BF983400200379044A64
:10A1D0002C2101FB03235869003018BF0120704770
:10A1E00098340020F0B4514D04792C2303FB045320
:10A1F00086B05F6827B103684FF40176C3F808633F
:10A200002C2303FB04539E696EB1DE690EB3002F4D
:10A2100000F0848003684FF401721120C3F8042316
:10A2200006B0F0BC704793F829709A61D9605E62FD
:10A23000DE61002F60D02C2202FB045201685368BB
:10A2400053B14FF40173C1F80433002006B0F0BCE1
:10A2500070471961DA61EEE7C1F84431D1F8443151
:10A260000393039B0368D3F82461D3F80871D3F8F0
:10A27000441157B9002936D1002EF4D02C2303FB0A
:10A2800004540023A3610320E0E7002EF6D161BB54
:10A29000966996B1C3F80811D3F80811049104998E
:10A2A000D668516AD3F818357354536A91690133EB
:10A2B0005362536A9942D5D808E0C3F80861D3F8CD
:10A2C000081105910599D3F81835536A2C2303FB1F
:10A2D0000454002294F82930A2610BB303680121D1
:10A2E00010461960B2E7002EC8D12C2303FB04549A
:10A2F0000023A3610F20A9E70368C3F82471D3F8F2
:10A30000242103680192019AC3F80871D3F8082147
:10A3100003680292012202991A608CE7112095E7E6
:10A32000026801211846516090E700BF9834002070
:10A33000F0B5524BD3F824218BB0002A6ED0002107
:10A34000C3F82411D3F82421049202228DF8182096
:10A35000049AD3F880044A4AC3F880040990D3F8D9
:10A360003C05D3680890C2E9061107931168536849
:10A3700006A89847414BD3F84421BAB10021404A7E
:10A38000C3F84411D3F8444190690394039C68B125
:10A39000D3F83C35D06808930123C2E90611079031
:10A3A0008DF8183006A8D2E900139847334BD3F83C
:10A3B0002021BAB10021C3F82011D3F82021029244
:10A3C00001202F4A029CD860506958B1D3F84C053F
:10A3D000936808908DF818105161079306A8D2E988
:10A3E00000139847254BD3F85821AAB10021C3F890
:10A3F0005811D3F85801224A01900198506958B178
:10A40000D3F84C05936808908DF8181051610793A4
:10A4100006A8D2E9001398470BB0F0BDD3F810118D
:10A420000029A7D0C3F81021D3F8101114480591C2
:10A4300005998169D3F83C458C429BD1C569C768B1
:10A44000D0E900168DB1D3F800C285612CF020054B
:10A45000C261C3F800520369C3600122CDE90774E9
:10A460008DF8182006A8B04784E701238561CDE95F
:10A4700007748DF8183006A8B0477BE7002000402D
:10A48000C43400202DE9F04307796B4E4FEAC7082A
:10A4900008EB070306EB830387B093F82030002B0B
:10A4A00040F09E800D460446644900689146FFF7DF
:10A4B00057FC002840F090802B68591C0CD00122DA
:10A4C0004FF0A04102FA03F3C1F808352B6803F5F9
:10A4D000E073032241F823206B685A1C06D003F571
:10A4E000E0734FF0A042002142F823102368AA69CC
:10A4F000C3F82425297D6A7D23680A43C3F86C25A7
:10A50000D5E900312268C2F80C35C2F814152B7D4C
:10A51000012B69D008EB07029200B318C3F804902E
:10A520002B69B350B9F1000F45D021682A7F444D03
:10A530000023C1F81031D1F8101101912168DDF824
:10A5400004C0C1F82031D1F8201102912168DDF852
:10A5500008C0C1F82431D1F8241103912168DDF835
:10A560000CC0C1F84431D1F8441104912168DDF8E0
:10A5700010C0C1F85831D1F85811236805910599D8
:10A58000C3F804532168090B53014AB2002ADBB215
:10A590004CDB02F1604202F5614282F8003323682D
:10A5A000284D1B0B5AB2520903F01F03012101FA77
:10A5B00003F345F822304744226806EB8706002360
:10A5C00001240821C2F8001586F82040C6E90633A8
:10A5D000736107B0BDE8F083112007B0BDE8F083D8
:10A5E000082007B0BDE8F083AB68591C06D003F51E
:10A5F000E0734FF0A042002142F82310EB685A1C90
:10A600000DD001224FF0A04102FA03F3C1F8083542
:10A61000EB6803F5E073032241F82320EB6822681E
:10A62000A968C2F80835C2F8101573E7064A01F0A8
:10A630000F010A441376B2E7C434002031A30200AC
:10A640001003420000E100E0FCEC00E001F0604398
:10A65000B3F1005F2CD1F0B40579264EEF007C19E0
:10A6600006EB840482B0636923BB6261A160026867
:10A67000C2F82031D2F820C10268CDF804C0DDF85C
:10A6800004C0C2F85831D2F8582100920268DDF8AF
:10A6900000C0D4F814C0C2F84415C2F848C5026816
:10A6A0000121916062684AB1184602B0F0BC70475F
:10A6B00010207047112002B0F0BC7047036800E022
:10A6C000B2B9D3F82011D3F858210029F8D07AB9BB
:10A6D0000122DA600268D2F85831002BFBD000204A
:10A6E0003D4406EB85060023736102B0F0BC704761
:10A6F0000F20F5E7C43400200379054A03EBC303B8
:10A7000002EB83035869003018BF0120704700BF77
:10A71000C434002001F06043B3F1005F7ED1F0B497
:10A720000579464CEB005E1904EB860682B076682C
:10A7300026B107684FF4047CC7F808C32B4404EB28
:10A7400083039D69002D42D19A61DD61D960036860
:10A75000C3F81051D3F8106103680196019EC3F845
:10A760004451D3F8445103680095009DC3F8341553
:10A77000C3F83825036801221A6005790368EE00E2
:10A78000721904EB820252685AB14FF40472C3F892
:10A790000423002002B0F0BC7047002942D10028F9
:10A7A00046D1D3F81021D3F84411D3F82401002A5C
:10A7B000F3D0354400284FF0000304EB850414BFA8
:10A7C000032018469942A36118BF0F20E2E7DD6914
:10A7D0003DB12EB303684FF40472C3F80423112073
:10A7E000D8E71961DA610368C3F81051D3F8106132
:10A7F00003680196019EC3F84451D3F8445103689D
:10A800000095009DC3F83415C3F838250268D2F8C6
:10A81000003243F02003C2F80032AEE71020704748
:10A820001120B7E7354404EB85040F20A261B1E79E
:10A83000354404EB85040320A161ABE7C434002058
:10A840000220FEF78DBC00BF2DE9F0470D460646FD
:10A85000FEF7A6FC03281ED8012D04461DD00ED3FA
:10A86000022D18D11B4B00EB40041C44657895B1B8
:10A87000194B1B687BB12846BDE8F04718471748BD
:10A88000FCF7CAFF134B164A04EB44010B44125D5C
:10A890009D78AA42EBD0BDE8F0870E4F4FEA400802
:10A8A00008EB0003FA18FD5C53782BB9A044474429
:10A8B0000B4BBA781A55DAE7DFF8289007484A4672
:10A8C0004FF48041FCF758FF0028EFD189F8006071
:10A8D000ECE700BF50350020643500201035002023
:10A8E0006C350020E834002010B50078FEF758FCE5
:10A8F00003280BD8064B00EB40001844407828B1E1
:10A90000044B1B6813B1BDE81040184710BD00BFD1
:10A910005035002064350020B44B1B68DB0700D4A1
:10A92000704770B5B24DB34E2B7834786BB1B24BE3
:10A930001B7800202870002B4BD0FEF7D9FB01209C
:10A94000FEF7D6FB0320FEF7D3FB172C40D8DFE839
:10A9500014F0B600F400F400DC000801CA00130192
:10A96000EE00500043005000430061001800180042
:10A97000180018001800660077008B009F005D002B
:10A980005D009E48FCF748FFD4F11104054600F035
:10A990000081002840F0FD80012C13D0C82303FB68
:10A9A00004F44FF47A704FF400430021C3FB040118
:10A9B0004FF4FA62002303F017FF2A4601468F483E
:10A9C000FCF7DAFE0220FEF787FB8B4B01221A70A0
:10A9D00070BDFEF799FBB8E7012318462B70FEF710
:10A9E000BFFB00224FF400518548BDE87040FCF7E2
:10A9F000C3BE012318462B70FEF7B2FB002240F2C3
:10AA000066617F48BDE87040FCF7B6BEFEF792FB7A
:10AA1000347070BDFEF78EFB0C23337070BD764B27
:10AA20001B78002B00F0BF800020FEF761FB0120A7
:10AA3000FEF75EFB0320FEF75BFB1223337070BD55
:10AA40006D4B1B78002B00F0B1800020FEF750FB0F
:10AA50000120FEF74DFB0320FEF74AFB0020FEF726
:10AA60003BFB1323337070BD634B1B78002B00F04E
:10AA7000AD800020FEF73CFB0120FEF739FB0320F0
:10AA8000FEF736FB0120FEF727FB1423337070BD61
:10AA9000594B1B78002B00F083800020FEF728FB29
:10AAA0000120FEF725FB0320FEF722FB0020FEF726
:10AAB00013FB0120FEF710FB1523337070BD4E4BC6
:10AAC0001B78002B00F08A800020FEF711FB01208C
:10AAD000FEF70EFB0320FEF70BFB4948FCF79CFE3C
:10AAE0000023337070BD0020FEF7E8FA002860D024
:10AAF0000020FEF7FDFA05233370002240F6CD4119
:10AB00003F48BDE87040FCF737BE0020FEF7D6FA9C
:10AB100000285ED00020FEF7EBFA43F23331032326
:10AB2000337000223648BDE87040FCF725BE002097
:10AB3000FEF7D2FA0723337070BD0020FEF7BEFA8D
:10AB4000D0B30020FEF7D4FA022C47F2333118BFFD
:10AB50004FF48031347000222948BDE87040FCF782
:10AB60000BBE0020FEF7AAFAD8B30020FEF7C0FA09
:10AB70004FF480310423D3E70020FEF7F1FA0623D7
:10AB80003370002240F266611D48BDE87040FCF75A
:10AB9000F3BD0220FEF7ACFA174B00221A7070BD0D
:10ABA000FEF7B2FA82E7FEF7AFFA46E7FEF7ACFA35
:10ABB00054E7FEF791FA9EE7FEF78EFA41F69A11F6
:10ABC00040F6CD43022C08BF1946C3E7FEF79CFAB6
:10ABD00058E7FEF781FA40F6CD41A0E7FEF794FA78
:10ABE0007BE7FEF779FA41F69A11C3E75C3500205E
:10ABF0006035002068350020E9340020F034002062
:10AC000030350020032801D900207047FEF7BABA7A
:10AC100038B5C54B1C6814F0010401D1204638BD7D
:10AC2000C24C2378054663B1C14B1B7800202070CD
:10AC300023B3FEF75DFA0120FEF75AFA0320FEF770
:10AC400057FA172D00F26D81DFE815F0C300EC0014
:10AC5000EC001001D90023010201360128001B007D
:10AC600028001B006A007100710071007100710002
:10AC70009A00AD0035004B0064006400FEF744FA12
:10AC8000DFE7012318462370FEF76AFA00224FF42B
:10AC90000051A848BDE83840FCF76EBD01231846B6
:10ACA0002370FEF75DFA002240F26661A148BDE81C
:10ACB0003840FCF761BD9E4B1B78002B00F01681DD
:10ACC0000020FEF715FA0120FEF712FA0320FEF726
:10ACD0000FFA0120FEF700FA974B14221A70002495
:10ACE0009CE7934B1B78002B00F003810020FEF7BC
:10ACF000FFF90120FEF7FCF90320FEF7F9F9002027
:10AD0000FEF7EAF90120FEF7E7F98B4B15221A70DE
:10AD1000002483E7FEF70EFA874B00241D707DE7C1
:10AD2000FEF708FA844B0C221A70002476E7834859
:10AD3000FCF772FD0446D5F1110000F0C580002C2F
:10AD400040F0C280012814D0C82505FB00F54FF45F
:10AD500000434FF47A700021C3FB05014FF4FA62FF
:10AD6000002303F041FD224601467448FCF704FD30
:10AD700004460220FEF7B0F96D4B01221A704DE730
:10AD80006B4B1B78002B00F0AE800020FEF7B0F973
:10AD90000120FEF7ADF90320FEF7AAF9664B122257
:10ADA0001A7000243AE7624B1B78002B00F0938066
:10ADB0000020FEF79DF90120FEF79AF90320FEF727
:10ADC00097F90020FEF788F95B4B13221A700024D4
:10ADD00024E7574B1B78002B00F08E800020FEF7F5
:10ADE00087F90120FEF784F90320FEF781F9514825
:10ADF000FCF712FD504B002204461A700EE70020AB
:10AE0000FEF75CF9002869D00020FEF771F94FF4D5
:10AE10008031494B474804241C700022BDE838406B
:10AE2000FCF7AABC0020FEF749F900286CD00020EE
:10AE3000FEF75EF9022D47F2333118BF4FF480312F
:10AE40003D4B3C481D700022BDE83840FCF794BCE7
:10AE50000020FEF785F9384B364806241C70002286
:10AE600040F26661BDE83840FCF786BC0020FEF782
:10AE700025F9002843D00020FEF73AF943F2333198
:10AE80002D4B2C4803241C700022BDE83840FCF7F1
:10AE900073BC0020FEF712F900283FD00020FEF717
:10AEA00027F9254B234805241C70002240F6CD418C
:10AEB000BDE83840FCF760BC0020FEF70DF91E4BE2
:10AEC00007221A700024A9E60220FEF711F9184B98
:10AED00000221A70A2E6FEF717F972E7FEF7FCF8F7
:10AEE00041F69A1195E7FEF70FF957E7FEF70CF9CF
:10AEF000EFE6FEF709F902E7FEF706F977E7FEF756
:10AF0000EBF840F6CD41BBE7FEF7E6F841F69A11C3
:10AF100040F6CD43022D08BF194691E7FEF7DCF855
:10AF2000BFE700247AE600BF5C35002060350020D2
:10AF3000E93400203035002068350020F03400204E
:10AF400038B5244B244A19608307106000F00105CE
:10AF500003D4CDB92C46204638BD204B20480E24C2
:10AF60000F2210211C701124DA7099715C7240F26A
:10AF700033320421FCF726F90446B8B115B101209B
:10AF8000FEF726F9204638BD0120FEF721F9154AC3
:10AF900015480021FCF7E2FB04460028F2D1134AD1
:10AFA00013480121BDE83840FCF7D8BBFCF766F92F
:10AFB00004460028E2D101460E4A0F48FCF7CEFBBA
:10AFC0000446002DDED00120FEF702F9002CD9D175
:10AFD000DDE700BF643500205C35002050350020DF
:10AFE00060F2020019A9020088F2020041A80200E2
:10AFF00080F20200E9A8020084F20200032811D8BE
:10B00000012A0BD0012919D00ED302290AD10E4BE7
:10B0100000EB4000034400205A70704701290AD019
:10B020000022EFE707207047074B00EB4000034486
:10B0300000209A70704700F10E02D2B200EB40037C
:10B0400001490020CA54704750350020032813D806
:10B0500008B5FEF7B7F8800000F1A0430020D3F850
:10B06000002722F44032C3F80027D3F8002742F427
:10B070004032C3F8002708BD0620704710B503888A
:10B08000102B07D0112B04D1254B186801381860FC
:10B0900030B110BD224C216881B10131216010BD59
:10B0A00001220221FFF7AAFF38B3072825D01D4B44
:10B0B0001B68002BEDD0BDE8104018470122084660
:10B0C000FFF79CFF38B1072805D0164B1B6803B16A
:10B0D00098472168E1E7072202210120FFF78EFF50
:10B0E00008B10728F1D1042202210020FFF786FFD2
:10B0F0000028EED00728E8D1EBE707220221012043
:10B10000FFF77CFF08B10728D1D1002108460A22A9
:10B11000FFF774FF0028BCD00728C8D110BD00BFBE
:10B12000743500207035002008B50020FFF78EFF31
:10B1300010B1062800D008BD0120FFF787FF0028C6
:10B14000F9D0062808BF002008BD00BF184B10B575
:10B15000186031B101200C46FFF754FDF8B102230D
:10B160002370144B186808B1002010BD0122022181
:10B17000FFF744FF08B10728F7D107220221012079
:10B18000FFF73CFF08B10728EFD1002108460A224B
:10B19000FFF734FF0028E7D00728E5D010BDFFF700
:10B1A00031FD08B92070DCE70B232370D9E700BF1D
:10B1B000703500207435002076DF70477ADF7047E5
:10B1C0007CDF70477FDF70478FDF7047B1DF7047EC
:10B1D00033DF7047FCF768B830B5037883B00722D7
:10B1E000012BADF8062002D006D3022B02D1406815
:10B1F000FCF75AF803B030BD0D4C0E4D20782844B2
:10B20000FCF734FC23780133DBB2062B2370F1D931
:10B210002B4413F8013C012BECD1074B07481B884A
:10B2200029460DF1060202F087F800232370E1E7BA
:10B230006C36002078350020042B0020082B0020DD
:10B2400010B50388103B82B00446462B2FD8DFE8A8
:10B2500003F042592E692E2E2E2E2E2E2E2E2E2EFD
:10B260002E2E2E242E2E2E2E2E2E2E2E2E2E2E2E08
:10B270002E2E2E2E2E2E2E2E2E2E2E2E2E302E2EEC
:10B280002E2E2E2E2E2E2E2E2E2E2E2E2E2E2E2EDE
:10B290002E2E2E2E382E2E2E300002A9002321F81D
:10B2A000043D8088FFF790FF08B1FBF7FDFF02B077
:10B2B00010BD80881321FFF77FFF0028F5D102B071
:10B2C00010BD1F4A0023108819461A46FFF77EFF5B
:10B2D0000028ECD0E9E71B4B1B481C49C01AC008EA
:10B2E000000440F00300FBF787F90720FFF790FC0C
:10B2F00010BB134BA1881648198001F081FE00286D
:10B30000D5D0D2E70F4B10481249C01AC00800042C
:10B3100040F00300FBF770F9094B4FF6FF721A80FB
:10B3200002B010BD064A0023108885211A46FFF797
:10B3300049FF0028BBD0B8E7FBF7B6FFD9E700BF4D
:10B34000042B0020D8F9020000FA0200A4F2020047
:10B35000BC3A0020B0F202000C4B4A881B889A428B
:10B3600000D070470A8840F677239A42F9D1084AFC
:10B3700008488B880849801A033BC0089BB2000428
:10B3800040F003001A46FBF765BB00BF042B00200A
:10B39000D8F9020000FA0200C0F2020008B50378F2
:10B3A00003B108BD054B3B211888FFF705FF0028B6
:10B3B000F7D0BDE80840FBF777BF00BF042B0020A3
:10B3C000072808B51CD00A280ED0042800D008BDD4
:10B3D000154B13211888FFF7EFFE30F00803F6D065
:10B3E000BDE80840FBF760BF0020FFF711FCB8B9CB
:10B3F000FFF79AFE88B9FFF7EBFE0028F0D108BDF1
:10B40000094B1A884FF6FF739A42E0D1074801F0C2
:10B41000D1F830F00803E3D108BDFBF745FFEAE7B8
:10B42000FBF742FFE4E700BF042B0020703600204A
:10B430002DE9F0410578FDB9838A06464BB3164FD6
:10B44000164BDFF85C80FF1AFF083F0447F0010746
:10B450003369585DFCF738FB044678B9B38A013587
:10B46000AB42F5D8013B3269D35C0D2B04D10A20E5
:10B47000FCF72AFB1128FAD0BDE8F081112C024616
:10B4800041463846E4D0FBF765FA2046FBF70CFF4F
:10B49000E4E74FF0FF33E6E700FA0200D8F90200D4
:10B4A00028F30200FBF700BF08B530B1032803D131
:10B4B0000220FFF7ADFB50B908BDFFF7A9FB50B95B
:10B4C000FFF732FE68B9FFF783FE0028F4D0BDE82D
:10B4D0000840FBF7E9BEFBF7E7FEFFF725FE002873
:10B4E000F1D0FBF7E1FEEEE708B50949094801F0A4
:10B4F0002DFC48B9F721074801F040FC00B908BD10
:10B50000BDE80840FBF7D0BEFBF7CEFEF2E700BF78
:10B5100059B30200A43A00202DE900480F4BD3E9AB
:10B52000000110F1010B41F1000CC3E900BC5846C9
:10B5300061466422002303F057F913430CD14FF006
:10B54000A042D2F80435D94301F4801103F48013EA
:10B55000C2F80815C2F80C35BDE80088C83A0020CA
:10B5600000B57E4B7E4A1B68A2FB03235B0A013BAE
:10B57000B3F1807FB1B009D27A4A7B485360E024AE
:10B580000021072380F8234091601360774D784BAA
:10B5900001930FCD05AC0FC495E803004FF4807301
:10B5A00084E803000293734C049301A905A8724A2E
:10B5B00003940723FCF7E0F908B1FBF775FE4FF49D
:10B5C00080410020FAF7B8FF08B1FBF76DFEFAF7EB
:10B5D00039FFFCF78DF808B1FBF766FE67490320D9
:10B5E000FFF7AEFC08B1FBF75FFE05A90020FFF7EF
:10B5F000ADFD08B1FBF758FEFDF79EFA08B1FBF769
:10B6000053FE01F0CFFE08B1FBF74EFE002305A963
:10B610000120059301F0A4FF08B1FBF745FE05A842
:10B6200002F07CF808B1FBF73FFE112354488DF877
:10B63000043002F075F9524982B201A8FFF7C0FD4B
:10B6400008B1FBF731FE0822002105A802F03FF9FE
:10B650004C4B059305A84FF0C8730693FFF7AEFD5A
:10B6600008B1FBF721FEFFF73FFF474B4748059323
:10B6700005A901F0B3FC08B1FBF716FE0422002176
:10B680000DEB020002F023F9414B4248019301A95E
:10B6900001F0E4FD08B1FBF707FEAC22002105A88C
:10B6A00002F015F90224002105223B488DF81440D0
:10B6B000012340258DF8161044F250648DF81720B0
:10B6C0001990364A3648ADF8603005A98DF89030AB
:10B6D000CDE927542E9200F047FD08B1FBF7E4FDB9
:10B6E00001212F4800F03CFD1C22002105A802F09A
:10B6F000EEF800232B4A0593ADF822308DF8243064
:10B70000294B4FF4A0354FF4F024032105A8CDE9CF
:10B7100006548DF82010CDE90A2301F0ADF808B1E8
:10B72000FBF7C2FD214802F0DBF8214B21482249FA
:10B73000C01AC008000440F00300FAF75DFF0321BF
:10B74000174800F091FD08B1FBF7AEFDFBF704FAD6
:10B750000028FBD1FDF706FAF8E700BFFC2A00201D
:10B76000CDCCCCCC10E000E000ED00E08CF202008B
:10B77000D03A0020D03B0020D9B10200C1B3020072
:10B78000DCF2020010003C00D5B10200BC3A0020FF
:10B7900031B40200082B0020002B0020A9B40200C5
:10B7A000703600209DB30200A5B40200E8F202004A
:10B7B000D8F9020000FA0200FCF202002DE9F84F6D
:10B7C0004400DFF85CB126180BEBC6068146F76A29
:10B7D000012F8A46904667D03DD3022F30D100F129
:10B7E000010909EB4909756A4FEAC9090027B36ADB
:10B7F000346AAB4203F1FF329CBF1B1903F1FF33E4
:10B80000A4EB05048CBF531B5B1B0BEB09024445E7
:10B8100028BF44469C42506828BF1C4628445146D5
:10B82000224602F049F8336A25449D422744A8EB9A
:10B830000408A24408D07562B8F1000FD7D100E027
:10B8400000273846BDE8F88F00231D467362B8F123
:10B85000000FCCD1F5E7B36A756AAB429CBF326A80
:10B860009B18013B5B1B9845EBD8044400F1010990
:10B870000BEBC40409EB49090BEBC90B266ADBF897
:10B880000400761BB045284443D33246A8EB060596
:10B8900002F012F80AEB0601DBF804002A4602F077
:10B8A0000BF847466562CCE7D6E90825B76AAF4290
:10B8B00098BFBF18461C013F06EB46067F1B0BEBEB
:10B8C000C606474528BF47467068A2EB05084745AE
:10B8D000284412D3A1444246A7EB08050BEBC90B41
:10B8E00001F0EAFF0AEB080170682A4601F0E4FF64
:10B8F000CBF824503846BDE8F88FA1440BEBC90BB8
:10B900003A463D4401F0D8FFCBF824503846BDE814
:10B91000F88F4246454401F0CFFF4746656290E705
:10B92000D43F002038B5114C114B1248E36110256B
:10B930004FF40073104A11492362E0640023256527
:10B94000E01D0225A3626362E362A3656365E365AC
:10B95000A261A264C4E9045501F0DAFF2046084957
:10B9600001F0D6FF2023A37138BD00BFD43F0020D3
:10B97000E03C0020D03C002054F3020060F30200C1
:10B9800064F302006DDF704779DF70477DDF704739
:10B9900064DF70472DE9F04F83B004880C9EBDF83A
:10B9A0003490B6F800A0002C39D0984600231746F2
:10B9B0008B4605461C4603E02A880134A24224DD5A
:10B9C0006A6852F82400019000220DF1030101A8D9
:10B9D000FFF7DEFF20BB9DF80320BA42ECD132888E
:10B9E000B91803B389452BDB42440DF1030101A8CB
:10B9F0000123FFF7CDFF98B931889DF803200A4451
:10BA000032802A880134A242DADC43B13388013B18
:10BA1000A3EB0A039BB2FF2B12D808F80A300020D0
:10BA200003B0BDE8F08F02310132894592B207DBE5
:10BA3000328008F802B03288013292B23280D3E705
:10BA40000C2003B0BDE8F08F2DE9F04700231788E4
:10BA5000138090F82D3086B0144605460E46002B14
:10BA600040F0FB80AA78002A40F0FD80EA78A2B17D
:10BA7000D91CB94200F2F3800221F154238801332A
:10BA80009BB201212380F15423880B449BB2238075
:10BA9000F25423880B449BB223806A68AAB1D91C54
:10BAA000B94200F2DC80022192F90020F15423888F
:10BAB00001339BB20A212380F154238801339BB2C6
:10BAC0002380F2542388013323802B89002B40F0FC
:10BAD0001B812B8A002B40F02F812B8B002B40F0F9
